{
	"contracts/burger.sol": {
		"JordanSneakerOrder": {
			"abi": [
				{
					"inputs": [
						{
							"internalType": "address",
							"name": "_buyAddr",
							"type": "address"
						}
					],
					"stateMutability": "payable",
					"type": "constructor"
				},
				{
					"inputs": [
						{
							"internalType": "uint256",
							"name": "ID",
							"type": "uint256"
						}
					],
					"name": "checkOrder",
					"outputs": [
						{
							"internalType": "address",
							"name": "customer",
							"type": "address"
						},
						{
							"internalType": "string",
							"name": "JordanSneaker",
							"type": "string"
						},
						{
							"internalType": "uint256",
							"name": "quantity",
							"type": "uint256"
						},
						{
							"internalType": "uint256",
							"name": "price",
							"type": "uint256"
						},
						{
							"internalType": "uint256",
							"name": "safePayment",
							"type": "uint256"
						}
					],
					"stateMutability": "view",
					"type": "function"
				},
				{
					"inputs": [],
					"name": "customerAddress",
					"outputs": [
						{
							"internalType": "address",
							"name": "",
							"type": "address"
						}
					],
					"stateMutability": "view",
					"type": "function"
				},
				{
					"inputs": [
						{
							"internalType": "uint256",
							"name": "invoiceID",
							"type": "uint256"
						}
					],
					"name": "getInvoice",
					"outputs": [
						{
							"internalType": "address",
							"name": "customer",
							"type": "address"
						},
						{
							"internalType": "uint256",
							"name": "orderNo",
							"type": "uint256"
						},
						{
							"internalType": "uint256",
							"name": "invoice_date",
							"type": "uint256"
						}
					],
					"stateMutability": "view",
					"type": "function"
				},
				{
					"inputs": [],
					"name": "ownerAddress",
					"outputs": [
						{
							"internalType": "address payable",
							"name": "",
							"type": "address"
						}
					],
					"stateMutability": "view",
					"type": "function"
				},
				{
					"inputs": [
						{
							"internalType": "uint256",
							"name": "orderNo",
							"type": "uint256"
						},
						{
							"internalType": "uint256",
							"name": "order_date",
							"type": "uint256"
						}
					],
					"name": "sendInvoice",
					"outputs": [],
					"stateMutability": "payable",
					"type": "function"
				},
				{
					"inputs": [
						{
							"internalType": "string",
							"name": "JordanSneaker",
							"type": "string"
						},
						{
							"internalType": "uint256",
							"name": "quantity",
							"type": "uint256"
						}
					],
					"name": "sendOrder",
					"outputs": [],
					"stateMutability": "payable",
					"type": "function"
				},
				{
					"inputs": [
						{
							"internalType": "uint256",
							"name": "orderNo",
							"type": "uint256"
						},
						{
							"internalType": "uint256",
							"name": "price",
							"type": "uint256"
						}
					],
					"name": "sendPrice",
					"outputs": [],
					"stateMutability": "payable",
					"type": "function"
				},
				{
					"inputs": [
						{
							"internalType": "uint256",
							"name": "orderNo",
							"type": "uint256"
						}
					],
					"name": "sendSafePayment",
					"outputs": [],
					"stateMutability": "payable",
					"type": "function"
				}
			],
			"devdoc": {
				"kind": "dev",
				"methods": {},
				"version": 1
			},
			"evm": {
				"assembly": "    /* \"contracts/burger.sol\":25:3629  contract JordanSneakerOrder {... */\n  mstore(0x40, 0x80)\n    /* \"contracts/burger.sol\":990:1114  constructor(address _buyAddr) public payable {... */\n  mload(0x40)\n  sub(codesize, bytecodeSize)\n  dup1\n  bytecodeSize\n  dup4\n  codecopy\n  dup2\n  dup2\n  add\n  0x40\n  mstore\n  dup2\n  add\n  swap1\n  tag_1\n  swap2\n  swap1\n  tag_2\n  jump\t// in\ntag_1:\n    /* \"contracts/burger.sol\":1068:1078  msg.sender */\n  caller\n    /* \"contracts/burger.sol\":1045:1057  ownerAddress */\n  0x00\n  dup1\n    /* \"contracts/burger.sol\":1045:1079  ownerAddress = payable(msg.sender) */\n  0x0100\n  exp\n  dup2\n  sload\n  dup2\n  0xffffffffffffffffffffffffffffffffffffffff\n  mul\n  not\n  and\n  swap1\n  dup4\n  0xffffffffffffffffffffffffffffffffffffffff\n  and\n  mul\n  or\n  swap1\n  sstore\n  pop\n    /* \"contracts/burger.sol\":1102:1110  _buyAddr */\n  dup1\n    /* \"contracts/burger.sol\":1084:1099  customerAddress */\n  0x01\n  0x00\n    /* \"contracts/burger.sol\":1084:1110  customerAddress = _buyAddr */\n  0x0100\n  exp\n  dup2\n  sload\n  dup2\n  0xffffffffffffffffffffffffffffffffffffffff\n  mul\n  not\n  and\n  swap1\n  dup4\n  0xffffffffffffffffffffffffffffffffffffffff\n  and\n  mul\n  or\n  swap1\n  sstore\n  pop\n    /* \"contracts/burger.sol\":990:1114  constructor(address _buyAddr) public payable {... */\n  pop\n    /* \"contracts/burger.sol\":25:3629  contract JordanSneakerOrder {... */\n  jump(tag_5)\n    /* \"#utility.yul\":7:150   */\ntag_7:\n    /* \"#utility.yul\":64:69   */\n  0x00\n    /* \"#utility.yul\":95:101   */\n  dup2\n    /* \"#utility.yul\":89:102   */\n  mload\n    /* \"#utility.yul\":80:102   */\n  swap1\n  pop\n    /* \"#utility.yul\":111:144   */\n  tag_9\n    /* \"#utility.yul\":138:143   */\n  dup2\n    /* \"#utility.yul\":111:144   */\n  tag_10\n  jump\t// in\ntag_9:\n    /* \"#utility.yul\":7:150   */\n  swap3\n  swap2\n  pop\n  pop\n  jump\t// out\n    /* \"#utility.yul\":156:507   */\ntag_2:\n    /* \"#utility.yul\":226:232   */\n  0x00\n    /* \"#utility.yul\":275:277   */\n  0x20\n    /* \"#utility.yul\":263:272   */\n  dup3\n    /* \"#utility.yul\":254:261   */\n  dup5\n    /* \"#utility.yul\":250:273   */\n  sub\n    /* \"#utility.yul\":246:278   */\n  slt\n    /* \"#utility.yul\":243:362   */\n  iszero\n  tag_12\n  jumpi\n    /* \"#utility.yul\":281:360   */\n  tag_13\n  tag_14\n  jump\t// in\ntag_13:\n    /* \"#utility.yul\":243:362   */\ntag_12:\n    /* \"#utility.yul\":401:402   */\n  0x00\n    /* \"#utility.yul\":426:490   */\n  tag_15\n    /* \"#utility.yul\":482:489   */\n  dup5\n    /* \"#utility.yul\":473:479   */\n  dup3\n    /* \"#utility.yul\":462:471   */\n  dup6\n    /* \"#utility.yul\":458:480   */\n  add\n    /* \"#utility.yul\":426:490   */\n  tag_7\n  jump\t// in\ntag_15:\n    /* \"#utility.yul\":416:490   */\n  swap2\n  pop\n    /* \"#utility.yul\":372:500   */\n  pop\n    /* \"#utility.yul\":156:507   */\n  swap3\n  swap2\n  pop\n  pop\n  jump\t// out\n    /* \"#utility.yul\":594:690   */\ntag_18:\n    /* \"#utility.yul\":631:638   */\n  0x00\n    /* \"#utility.yul\":660:684   */\n  tag_20\n    /* \"#utility.yul\":678:683   */\n  dup3\n    /* \"#utility.yul\":660:684   */\n  tag_21\n  jump\t// in\ntag_20:\n    /* \"#utility.yul\":649:684   */\n  swap1\n  pop\n    /* \"#utility.yul\":594:690   */\n  swap2\n  swap1\n  pop\n  jump\t// out\n    /* \"#utility.yul\":696:822   */\ntag_21:\n    /* \"#utility.yul\":733:740   */\n  0x00\n    /* \"#utility.yul\":773:815   */\n  0xffffffffffffffffffffffffffffffffffffffff\n    /* \"#utility.yul\":766:771   */\n  dup3\n    /* \"#utility.yul\":762:816   */\n  and\n    /* \"#utility.yul\":751:816   */\n  swap1\n  pop\n    /* \"#utility.yul\":696:822   */\n  swap2\n  swap1\n  pop\n  jump\t// out\n    /* \"#utility.yul\":951:1068   */\ntag_14:\n    /* \"#utility.yul\":1060:1061   */\n  0x00\n    /* \"#utility.yul\":1057:1058   */\n  dup1\n    /* \"#utility.yul\":1050:1062   */\n  revert\n    /* \"#utility.yul\":1074:1196   */\ntag_10:\n    /* \"#utility.yul\":1147:1171   */\n  tag_27\n    /* \"#utility.yul\":1165:1170   */\n  dup2\n    /* \"#utility.yul\":1147:1171   */\n  tag_18\n  jump\t// in\ntag_27:\n    /* \"#utility.yul\":1140:1145   */\n  dup2\n    /* \"#utility.yul\":1137:1172   */\n  eq\n    /* \"#utility.yul\":1127:1190   */\n  tag_28\n  jumpi\n    /* \"#utility.yul\":1186:1187   */\n  0x00\n    /* \"#utility.yul\":1183:1184   */\n  dup1\n    /* \"#utility.yul\":1176:1188   */\n  revert\n    /* \"#utility.yul\":1127:1190   */\ntag_28:\n    /* \"#utility.yul\":1074:1196   */\n  pop\n  jump\t// out\n    /* \"contracts/burger.sol\":25:3629  contract JordanSneakerOrder {... */\ntag_5:\n  dataSize(sub_0)\n  dup1\n  dataOffset(sub_0)\n  0x00\n  codecopy\n  0x00\n  return\nstop\n\nsub_0: assembly {\n        /* \"contracts/burger.sol\":25:3629  contract JordanSneakerOrder {... */\n      mstore(0x40, 0x80)\n      jumpi(tag_1, lt(calldatasize, 0x04))\n      shr(0xe0, calldataload(0x00))\n      dup1\n      0x8f5feb98\n      gt\n      tag_10\n      jumpi\n      dup1\n      0x8f5feb98\n      eq\n      tag_6\n      jumpi\n      dup1\n      0x8f84aa09\n      eq\n      tag_7\n      jumpi\n      dup1\n      0x9670d699\n      eq\n      tag_8\n      jumpi\n      dup1\n      0xcea9e360\n      eq\n      tag_9\n      jumpi\n      jump(tag_1)\n    tag_10:\n      dup1\n      0x3a23cc0a\n      eq\n      tag_2\n      jumpi\n      dup1\n      0x48efc672\n      eq\n      tag_3\n      jumpi\n      dup1\n      0x61c3fe66\n      eq\n      tag_4\n      jumpi\n      dup1\n      0x6e0fa7be\n      eq\n      tag_5\n      jumpi\n    tag_1:\n      0x00\n      dup1\n      revert\n        /* \"contracts/burger.sol\":3157:3625  function getInvoice(uint invoiceID) view public returns (address customer, uint orderNo, uint invoice_date){... */\n    tag_2:\n      callvalue\n      dup1\n      iszero\n      tag_11\n      jumpi\n      0x00\n      dup1\n      revert\n    tag_11:\n      pop\n      tag_12\n      0x04\n      dup1\n      calldatasize\n      sub\n      dup2\n      add\n      swap1\n      tag_13\n      swap2\n      swap1\n      tag_14\n      jump\t// in\n    tag_13:\n      tag_15\n      jump\t// in\n    tag_12:\n      mload(0x40)\n      tag_16\n      swap4\n      swap3\n      swap2\n      swap1\n      tag_17\n      jump\t// in\n    tag_16:\n      mload(0x40)\n      dup1\n      swap2\n      sub\n      swap1\n      return\n        /* \"contracts/burger.sol\":1545:1912  function checkOrder(uint ID) view public returns (address customer, string memory JordanSneaker, ... */\n    tag_3:\n      callvalue\n      dup1\n      iszero\n      tag_18\n      jumpi\n      0x00\n      dup1\n      revert\n    tag_18:\n      pop\n      tag_19\n      0x04\n      dup1\n      calldatasize\n      sub\n      dup2\n      add\n      swap1\n      tag_20\n      swap2\n      swap1\n      tag_14\n      jump\t// in\n    tag_20:\n      tag_21\n      jump\t// in\n    tag_19:\n      mload(0x40)\n      tag_22\n      swap6\n      swap5\n      swap4\n      swap3\n      swap2\n      swap1\n      tag_23\n      jump\t// in\n    tag_22:\n      mload(0x40)\n      dup1\n      swap2\n      sub\n      swap1\n      return\n        /* \"contracts/burger.sol\":191:221  address public customerAddress */\n    tag_4:\n      callvalue\n      dup1\n      iszero\n      tag_24\n      jumpi\n      0x00\n      dup1\n      revert\n    tag_24:\n      pop\n      tag_25\n      tag_26\n      jump\t// in\n    tag_25:\n      mload(0x40)\n      tag_27\n      swap2\n      swap1\n      tag_28\n      jump\t// in\n    tag_27:\n      mload(0x40)\n      dup1\n      swap2\n      sub\n      swap1\n      return\n        /* \"contracts/burger.sol\":2311:2754  function sendInvoice(uint orderNo, uint order_date) payable public {... */\n    tag_5:\n      tag_29\n      0x04\n      dup1\n      calldatasize\n      sub\n      dup2\n      add\n      swap1\n      tag_30\n      swap2\n      swap1\n      tag_31\n      jump\t// in\n    tag_30:\n      tag_32\n      jump\t// in\n    tag_29:\n      stop\n        /* \"contracts/burger.sol\":1970:2255  function sendSafePayment(uint orderNo) payable public {... */\n    tag_6:\n      tag_33\n      0x04\n      dup1\n      calldatasize\n      sub\n      dup2\n      add\n      swap1\n      tag_34\n      swap2\n      swap1\n      tag_14\n      jump\t// in\n    tag_34:\n      tag_35\n      jump\t// in\n    tag_33:\n      stop\n        /* \"contracts/burger.sol\":107:142  address payable public ownerAddress */\n    tag_7:\n      callvalue\n      dup1\n      iszero\n      tag_36\n      jumpi\n      0x00\n      dup1\n      revert\n    tag_36:\n      pop\n      tag_37\n      tag_38\n      jump\t// in\n    tag_37:\n      mload(0x40)\n      tag_39\n      swap2\n      swap1\n      tag_40\n      jump\t// in\n    tag_39:\n      mload(0x40)\n      dup1\n      swap2\n      sub\n      swap1\n      return\n        /* \"contracts/burger.sol\":1166:1494  function sendOrder(string memory JordanSneaker, uint quantity) payable public {\t\t\t\t... */\n    tag_8:\n      tag_41\n      0x04\n      dup1\n      calldatasize\n      sub\n      dup2\n      add\n      swap1\n      tag_42\n      swap2\n      swap1\n      tag_43\n      jump\t// in\n    tag_42:\n      tag_44\n      jump\t// in\n    tag_41:\n      stop\n        /* \"contracts/burger.sol\":2808:3099  function sendPrice(uint orderNo, uint price) payable public {\t\t... */\n    tag_9:\n      tag_45\n      0x04\n      dup1\n      calldatasize\n      sub\n      dup2\n      add\n      swap1\n      tag_46\n      swap2\n      swap1\n      tag_31\n      jump\t// in\n    tag_46:\n      tag_47\n      jump\t// in\n    tag_45:\n      stop\n        /* \"contracts/burger.sol\":3157:3625  function getInvoice(uint invoiceID) view public returns (address customer, uint orderNo, uint invoice_date){... */\n    tag_15:\n        /* \"contracts/burger.sol\":3214:3230  address customer */\n      0x00\n        /* \"contracts/burger.sol\":3232:3244  uint orderNo */\n      dup1\n        /* \"contracts/burger.sol\":3246:3263  uint invoice_date */\n      0x00\n        /* \"contracts/burger.sol\":3320:3328  invoices */\n      0x03\n        /* \"contracts/burger.sol\":3320:3339  invoices[invoiceID] */\n      0x00\n        /* \"contracts/burger.sol\":3329:3338  invoiceID */\n      dup6\n        /* \"contracts/burger.sol\":3320:3339  invoices[invoiceID] */\n      dup2\n      mstore\n      0x20\n      add\n      swap1\n      dup2\n      mstore\n      0x20\n      add\n      0x00\n      keccak256\n        /* \"contracts/burger.sol\":3320:3347  invoices[invoiceID].created */\n      0x02\n      add\n      0x00\n      swap1\n      sload\n      swap1\n      0x0100\n      exp\n      swap1\n      div\n      0xff\n      and\n        /* \"contracts/burger.sol\":3312:3348  require(invoices[invoiceID].created) */\n      tag_49\n      jumpi\n      0x00\n      dup1\n      revert\n    tag_49:\n        /* \"contracts/burger.sol\":3393:3417  Invoice storage _invoice */\n      0x00\n        /* \"contracts/burger.sol\":3420:3428  invoices */\n      0x03\n        /* \"contracts/burger.sol\":3420:3439  invoices[invoiceID] */\n      0x00\n        /* \"contracts/burger.sol\":3429:3438  invoiceID */\n      dup7\n        /* \"contracts/burger.sol\":3420:3439  invoices[invoiceID] */\n      dup2\n      mstore\n      0x20\n      add\n      swap1\n      dup2\n      mstore\n      0x20\n      add\n      0x00\n      keccak256\n        /* \"contracts/burger.sol\":3393:3439  Invoice storage _invoice = invoices[invoiceID] */\n      swap1\n      pop\n        /* \"contracts/burger.sol\":3482:3502  Order storage _order */\n      0x00\n        /* \"contracts/burger.sol\":3509:3515  orders */\n      0x02\n        /* \"contracts/burger.sol\":3509:3533  orders[_invoice.orderNo] */\n      0x00\n        /* \"contracts/burger.sol\":3516:3524  _invoice */\n      dup4\n        /* \"contracts/burger.sol\":3516:3532  _invoice.orderNo */\n      0x01\n      add\n      sload\n        /* \"contracts/burger.sol\":3509:3533  orders[_invoice.orderNo] */\n      dup2\n      mstore\n      0x20\n      add\n      swap1\n      dup2\n      mstore\n      0x20\n      add\n      0x00\n      keccak256\n        /* \"contracts/burger.sol\":3482:3533  Order storage _order     = orders[_invoice.orderNo] */\n      swap1\n      pop\n        /* \"contracts/burger.sol\":3574:3589  customerAddress */\n      0x01\n      0x00\n      swap1\n      sload\n      swap1\n      0x0100\n      exp\n      swap1\n      div\n      0xffffffffffffffffffffffffffffffffffffffff\n      and\n        /* \"contracts/burger.sol\":3591:3597  _order */\n      dup2\n        /* \"contracts/burger.sol\":3591:3600  _order.ID */\n      0x00\n      add\n      sload\n        /* \"contracts/burger.sol\":3602:3608  _order */\n      dup3\n        /* \"contracts/burger.sol\":3602:3620  _order.dateOfOrder */\n      0x05\n      add\n      sload\n        /* \"contracts/burger.sol\":3566:3621  return (customerAddress, _order.ID, _order.dateOfOrder) */\n      swap5\n      pop\n      swap5\n      pop\n      swap5\n      pop\n      pop\n      pop\n        /* \"contracts/burger.sol\":3157:3625  function getInvoice(uint invoiceID) view public returns (address customer, uint orderNo, uint invoice_date){... */\n      swap2\n      swap4\n      swap1\n      swap3\n      pop\n      jump\t// out\n        /* \"contracts/burger.sol\":1545:1912  function checkOrder(uint ID) view public returns (address customer, string memory JordanSneaker, ... */\n    tag_21:\n        /* \"contracts/burger.sol\":1595:1611  address customer */\n      0x00\n        /* \"contracts/burger.sol\":1613:1640  string memory JordanSneaker */\n      0x60\n        /* \"contracts/burger.sol\":1647:1660  uint quantity */\n      0x00\n        /* \"contracts/burger.sol\":1662:1672  uint price */\n      dup1\n        /* \"contracts/burger.sol\":1674:1690  uint safePayment */\n      0x00\n        /* \"contracts/burger.sol\":1748:1754  orders */\n      0x02\n        /* \"contracts/burger.sol\":1748:1758  orders[ID] */\n      0x00\n        /* \"contracts/burger.sol\":1755:1757  ID */\n      dup8\n        /* \"contracts/burger.sol\":1748:1758  orders[ID] */\n      dup2\n      mstore\n      0x20\n      add\n      swap1\n      dup2\n      mstore\n      0x20\n      add\n      0x00\n      keccak256\n        /* \"contracts/burger.sol\":1748:1766  orders[ID].created */\n      0x07\n      add\n      0x00\n      swap1\n      sload\n      swap1\n      0x0100\n      exp\n      swap1\n      div\n      0xff\n      and\n        /* \"contracts/burger.sol\":1740:1767  require(orders[ID].created) */\n      tag_51\n      jumpi\n      0x00\n      dup1\n      revert\n    tag_51:\n        /* \"contracts/burger.sol\":1803:1818  customerAddress */\n      0x01\n      0x00\n      swap1\n      sload\n      swap1\n      0x0100\n      exp\n      swap1\n      div\n      0xffffffffffffffffffffffffffffffffffffffff\n      and\n        /* \"contracts/burger.sol\":1820:1826  orders */\n      0x02\n        /* \"contracts/burger.sol\":1820:1830  orders[ID] */\n      0x00\n        /* \"contracts/burger.sol\":1827:1829  ID */\n      dup9\n        /* \"contracts/burger.sol\":1820:1830  orders[ID] */\n      dup2\n      mstore\n      0x20\n      add\n      swap1\n      dup2\n      mstore\n      0x20\n      add\n      0x00\n      keccak256\n        /* \"contracts/burger.sol\":1820:1844  orders[ID].JordanSneaker */\n      0x01\n      add\n        /* \"contracts/burger.sol\":1846:1852  orders */\n      0x02\n        /* \"contracts/burger.sol\":1846:1856  orders[ID] */\n      0x00\n        /* \"contracts/burger.sol\":1853:1855  ID */\n      dup10\n        /* \"contracts/burger.sol\":1846:1856  orders[ID] */\n      dup2\n      mstore\n      0x20\n      add\n      swap1\n      dup2\n      mstore\n      0x20\n      add\n      0x00\n      keccak256\n        /* \"contracts/burger.sol\":1846:1865  orders[ID].quantity */\n      0x02\n      add\n      sload\n        /* \"contracts/burger.sol\":1867:1873  orders */\n      0x02\n        /* \"contracts/burger.sol\":1867:1877  orders[ID] */\n      0x00\n        /* \"contracts/burger.sol\":1874:1876  ID */\n      dup11\n        /* \"contracts/burger.sol\":1867:1877  orders[ID] */\n      dup2\n      mstore\n      0x20\n      add\n      swap1\n      dup2\n      mstore\n      0x20\n      add\n      0x00\n      keccak256\n        /* \"contracts/burger.sol\":1867:1883  orders[ID].price */\n      0x03\n      add\n      sload\n        /* \"contracts/burger.sol\":1885:1891  orders */\n      0x02\n        /* \"contracts/burger.sol\":1885:1895  orders[ID] */\n      0x00\n        /* \"contracts/burger.sol\":1892:1894  ID */\n      dup12\n        /* \"contracts/burger.sol\":1885:1895  orders[ID] */\n      dup2\n      mstore\n      0x20\n      add\n      swap1\n      dup2\n      mstore\n      0x20\n      add\n      0x00\n      keccak256\n        /* \"contracts/burger.sol\":1885:1907  orders[ID].safePayment */\n      0x04\n      add\n      sload\n        /* \"contracts/burger.sol\":1796:1908  return(customerAddress, orders[ID].JordanSneaker, orders[ID].quantity, orders[ID].price, orders[ID].safePayment) */\n      dup4\n      dup1\n      sload\n      tag_52\n      swap1\n      tag_53\n      jump\t// in\n    tag_52:\n      dup1\n      0x1f\n      add\n      0x20\n      dup1\n      swap2\n      div\n      mul\n      0x20\n      add\n      mload(0x40)\n      swap1\n      dup2\n      add\n      0x40\n      mstore\n      dup1\n      swap3\n      swap2\n      swap1\n      dup2\n      dup2\n      mstore\n      0x20\n      add\n      dup3\n      dup1\n      sload\n      tag_54\n      swap1\n      tag_53\n      jump\t// in\n    tag_54:\n      dup1\n      iszero\n      tag_55\n      jumpi\n      dup1\n      0x1f\n      lt\n      tag_56\n      jumpi\n      0x0100\n      dup1\n      dup4\n      sload\n      div\n      mul\n      dup4\n      mstore\n      swap2\n      0x20\n      add\n      swap2\n      jump(tag_55)\n    tag_56:\n      dup3\n      add\n      swap2\n      swap1\n      0x00\n      mstore\n      keccak256(0x00, 0x20)\n      swap1\n    tag_57:\n      dup2\n      sload\n      dup2\n      mstore\n      swap1\n      0x01\n      add\n      swap1\n      0x20\n      add\n      dup1\n      dup4\n      gt\n      tag_57\n      jumpi\n      dup3\n      swap1\n      sub\n      0x1f\n      and\n      dup3\n      add\n      swap2\n    tag_55:\n      pop\n      pop\n      pop\n      pop\n      pop\n      swap4\n      pop\n      swap5\n      pop\n      swap5\n      pop\n      swap5\n      pop\n      swap5\n      pop\n      swap5\n      pop\n        /* \"contracts/burger.sol\":1545:1912  function checkOrder(uint ID) view public returns (address customer, string memory JordanSneaker, ... */\n      swap2\n      swap4\n      swap6\n      swap1\n      swap3\n      swap5\n      pop\n      jump\t// out\n        /* \"contracts/burger.sol\":191:221  address public customerAddress */\n    tag_26:\n      0x01\n      0x00\n      swap1\n      sload\n      swap1\n      0x0100\n      exp\n      swap1\n      div\n      0xffffffffffffffffffffffffffffffffffffffff\n      and\n      dup2\n      jump\t// out\n        /* \"contracts/burger.sol\":2311:2754  function sendInvoice(uint orderNo, uint order_date) payable public {... */\n    tag_32:\n        /* \"contracts/burger.sol\":2452:2462  msg.sender */\n      caller\n        /* \"contracts/burger.sol\":2436:2462  ownerAddress == msg.sender */\n      0xffffffffffffffffffffffffffffffffffffffff\n      and\n        /* \"contracts/burger.sol\":2436:2448  ownerAddress */\n      0x00\n      dup1\n      sload\n      swap1\n      0x0100\n      exp\n      swap1\n      div\n      0xffffffffffffffffffffffffffffffffffffffff\n      and\n        /* \"contracts/burger.sol\":2436:2462  ownerAddress == msg.sender */\n      0xffffffffffffffffffffffffffffffffffffffff\n      and\n      eq\n        /* \"contracts/burger.sol\":2428:2463  require(ownerAddress == msg.sender) */\n      tag_59\n      jumpi\n      0x00\n      dup1\n      revert\n    tag_59:\n        /* \"contracts/burger.sol\":2517:2523  orders */\n      0x02\n        /* \"contracts/burger.sol\":2517:2532  orders[orderNo] */\n      0x00\n        /* \"contracts/burger.sol\":2524:2531  orderNo */\n      dup4\n        /* \"contracts/burger.sol\":2517:2532  orders[orderNo] */\n      dup2\n      mstore\n      0x20\n      add\n      swap1\n      dup2\n      mstore\n      0x20\n      add\n      0x00\n      keccak256\n        /* \"contracts/burger.sol\":2517:2540  orders[orderNo].created */\n      0x07\n      add\n      0x00\n      swap1\n      sload\n      swap1\n      0x0100\n      exp\n      swap1\n      div\n      0xff\n      and\n        /* \"contracts/burger.sol\":2509:2541  require(orders[orderNo].created) */\n      tag_60\n      jumpi\n      0x00\n      dup1\n      revert\n    tag_60:\n        /* \"contracts/burger.sol\":2579:2589  invoiceseq */\n      0x05\n      0x00\n        /* \"contracts/burger.sol\":2579:2591  invoiceseq++ */\n      dup2\n      sload\n      dup1\n      swap3\n      swap2\n      swap1\n      tag_61\n      swap1\n      tag_62\n      jump\t// in\n    tag_61:\n      swap2\n      swap1\n      pop\n      sstore\n      pop\n        /* \"contracts/burger.sol\":2644:2678  Invoice(invoiceseq, orderNo, true) */\n      mload(0x40)\n      dup1\n      0x60\n      add\n      0x40\n      mstore\n      dup1\n        /* \"contracts/burger.sol\":2652:2662  invoiceseq */\n      sload(0x05)\n        /* \"contracts/burger.sol\":2644:2678  Invoice(invoiceseq, orderNo, true) */\n      dup2\n      mstore\n      0x20\n      add\n        /* \"contracts/burger.sol\":2664:2671  orderNo */\n      dup4\n        /* \"contracts/burger.sol\":2644:2678  Invoice(invoiceseq, orderNo, true) */\n      dup2\n      mstore\n      0x20\n      add\n        /* \"contracts/burger.sol\":2673:2677  true */\n      0x01\n        /* \"contracts/burger.sol\":2644:2678  Invoice(invoiceseq, orderNo, true) */\n      iszero\n      iszero\n      dup2\n      mstore\n      pop\n        /* \"contracts/burger.sol\":2621:2629  invoices */\n      0x03\n        /* \"contracts/burger.sol\":2621:2641  invoices[invoiceseq] */\n      0x00\n        /* \"contracts/burger.sol\":2630:2640  invoiceseq */\n      sload(0x05)\n        /* \"contracts/burger.sol\":2621:2641  invoices[invoiceseq] */\n      dup2\n      mstore\n      0x20\n      add\n      swap1\n      dup2\n      mstore\n      0x20\n      add\n      0x00\n      keccak256\n        /* \"contracts/burger.sol\":2621:2678  invoices[invoiceseq] = Invoice(invoiceseq, orderNo, true) */\n      0x00\n      dup3\n      add\n      mload\n      dup2\n      0x00\n      add\n      sstore\n      0x20\n      dup3\n      add\n      mload\n      dup2\n      0x01\n      add\n      sstore\n      0x40\n      dup3\n      add\n      mload\n      dup2\n      0x02\n      add\n      exp(0x0100, 0x00)\n      dup2\n      sload\n      dup2\n      0xff\n      mul\n      not\n      and\n      swap1\n      dup4\n      iszero\n      iszero\n      mul\n      or\n      swap1\n      sstore\n      pop\n      swap1\n      pop\n      pop\n        /* \"contracts/burger.sol\":2740:2750  order_date */\n      dup1\n        /* \"contracts/burger.sol\":2710:2716  orders */\n      0x02\n        /* \"contracts/burger.sol\":2710:2725  orders[orderNo] */\n      0x00\n        /* \"contracts/burger.sol\":2717:2724  orderNo */\n      dup5\n        /* \"contracts/burger.sol\":2710:2725  orders[orderNo] */\n      dup2\n      mstore\n      0x20\n      add\n      swap1\n      dup2\n      mstore\n      0x20\n      add\n      0x00\n      keccak256\n        /* \"contracts/burger.sol\":2710:2737  orders[orderNo].dateOfOrder */\n      0x05\n      add\n        /* \"contracts/burger.sol\":2710:2750  orders[orderNo].dateOfOrder = order_date */\n      dup2\n      swap1\n      sstore\n      pop\n        /* \"contracts/burger.sol\":2311:2754  function sendInvoice(uint orderNo, uint order_date) payable public {... */\n      pop\n      pop\n      jump\t// out\n        /* \"contracts/burger.sol\":1970:2255  function sendSafePayment(uint orderNo) payable public {... */\n    tag_35:\n        /* \"contracts/burger.sol\":2104:2114  msg.sender */\n      caller\n        /* \"contracts/burger.sol\":2085:2114  customerAddress == msg.sender */\n      0xffffffffffffffffffffffffffffffffffffffff\n      and\n        /* \"contracts/burger.sol\":2085:2100  customerAddress */\n      0x01\n      0x00\n      swap1\n      sload\n      swap1\n      0x0100\n      exp\n      swap1\n      div\n      0xffffffffffffffffffffffffffffffffffffffff\n      and\n        /* \"contracts/burger.sol\":2085:2114  customerAddress == msg.sender */\n      0xffffffffffffffffffffffffffffffffffffffff\n      and\n      eq\n        /* \"contracts/burger.sol\":2077:2115  require(customerAddress == msg.sender) */\n      tag_64\n      jumpi\n      0x00\n      dup1\n      revert\n    tag_64:\n        /* \"contracts/burger.sol\":2169:2175  orders */\n      0x02\n        /* \"contracts/burger.sol\":2169:2184  orders[orderNo] */\n      0x00\n        /* \"contracts/burger.sol\":2176:2183  orderNo */\n      dup3\n        /* \"contracts/burger.sol\":2169:2184  orders[orderNo] */\n      dup2\n      mstore\n      0x20\n      add\n      swap1\n      dup2\n      mstore\n      0x20\n      add\n      0x00\n      keccak256\n        /* \"contracts/burger.sol\":2169:2192  orders[orderNo].created */\n      0x07\n      add\n      0x00\n      swap1\n      sload\n      swap1\n      0x0100\n      exp\n      swap1\n      div\n      0xff\n      and\n        /* \"contracts/burger.sol\":2161:2193  require(orders[orderNo].created) */\n      tag_65\n      jumpi\n      0x00\n      dup1\n      revert\n    tag_65:\n        /* \"contracts/burger.sol\":2242:2251  msg.value */\n      callvalue\n        /* \"contracts/burger.sol\":2212:2218  orders */\n      0x02\n        /* \"contracts/burger.sol\":2212:2227  orders[orderNo] */\n      0x00\n        /* \"contracts/burger.sol\":2219:2226  orderNo */\n      dup4\n        /* \"contracts/burger.sol\":2212:2227  orders[orderNo] */\n      dup2\n      mstore\n      0x20\n      add\n      swap1\n      dup2\n      mstore\n      0x20\n      add\n      0x00\n      keccak256\n        /* \"contracts/burger.sol\":2212:2239  orders[orderNo].safePayment */\n      0x04\n      add\n        /* \"contracts/burger.sol\":2212:2251  orders[orderNo].safePayment = msg.value */\n      dup2\n      swap1\n      sstore\n      pop\n        /* \"contracts/burger.sol\":1970:2255  function sendSafePayment(uint orderNo) payable public {... */\n      pop\n      jump\t// out\n        /* \"contracts/burger.sol\":107:142  address payable public ownerAddress */\n    tag_38:\n      0x00\n      dup1\n      sload\n      swap1\n      0x0100\n      exp\n      swap1\n      div\n      0xffffffffffffffffffffffffffffffffffffffff\n      and\n      dup2\n      jump\t// out\n        /* \"contracts/burger.sol\":1166:1494  function sendOrder(string memory JordanSneaker, uint quantity) payable public {\t\t\t\t... */\n    tag_44:\n        /* \"contracts/burger.sol\":1323:1338  customerAddress */\n      0x01\n      0x00\n      swap1\n      sload\n      swap1\n      0x0100\n      exp\n      swap1\n      div\n      0xffffffffffffffffffffffffffffffffffffffff\n      and\n        /* \"contracts/burger.sol\":1309:1338  msg.sender == customerAddress */\n      0xffffffffffffffffffffffffffffffffffffffff\n      and\n        /* \"contracts/burger.sol\":1309:1319  msg.sender */\n      caller\n        /* \"contracts/burger.sol\":1309:1338  msg.sender == customerAddress */\n      0xffffffffffffffffffffffffffffffffffffffff\n      and\n      eq\n        /* \"contracts/burger.sol\":1301:1339  require(msg.sender == customerAddress) */\n      tag_67\n      jumpi\n      0x00\n      dup1\n      revert\n    tag_67:\n        /* \"contracts/burger.sol\":1375:1383  orderseq */\n      0x04\n      0x00\n        /* \"contracts/burger.sol\":1375:1385  orderseq++ */\n      dup2\n      sload\n      dup1\n      swap3\n      swap2\n      swap1\n      tag_68\n      swap1\n      tag_62\n      jump\t// in\n    tag_68:\n      swap2\n      swap1\n      pop\n      sstore\n      pop\n        /* \"contracts/burger.sol\":1432:1490  Order(orderseq, JordanSneaker, quantity, 0, 0, 0, 0, true) */\n      mload(0x40)\n      dup1\n      0x0100\n      add\n      0x40\n      mstore\n      dup1\n        /* \"contracts/burger.sol\":1438:1446  orderseq */\n      sload(0x04)\n        /* \"contracts/burger.sol\":1432:1490  Order(orderseq, JordanSneaker, quantity, 0, 0, 0, 0, true) */\n      dup2\n      mstore\n      0x20\n      add\n        /* \"contracts/burger.sol\":1448:1461  JordanSneaker */\n      dup4\n        /* \"contracts/burger.sol\":1432:1490  Order(orderseq, JordanSneaker, quantity, 0, 0, 0, 0, true) */\n      dup2\n      mstore\n      0x20\n      add\n        /* \"contracts/burger.sol\":1463:1471  quantity */\n      dup3\n        /* \"contracts/burger.sol\":1432:1490  Order(orderseq, JordanSneaker, quantity, 0, 0, 0, 0, true) */\n      dup2\n      mstore\n      0x20\n      add\n        /* \"contracts/burger.sol\":1473:1474  0 */\n      0x00\n        /* \"contracts/burger.sol\":1432:1490  Order(orderseq, JordanSneaker, quantity, 0, 0, 0, 0, true) */\n      dup2\n      mstore\n      0x20\n      add\n        /* \"contracts/burger.sol\":1476:1477  0 */\n      0x00\n        /* \"contracts/burger.sol\":1432:1490  Order(orderseq, JordanSneaker, quantity, 0, 0, 0, 0, true) */\n      dup2\n      mstore\n      0x20\n      add\n        /* \"contracts/burger.sol\":1479:1480  0 */\n      0x00\n        /* \"contracts/burger.sol\":1432:1490  Order(orderseq, JordanSneaker, quantity, 0, 0, 0, 0, true) */\n      dup2\n      mstore\n      0x20\n      add\n        /* \"contracts/burger.sol\":1482:1483  0 */\n      0x00\n        /* \"contracts/burger.sol\":1432:1490  Order(orderseq, JordanSneaker, quantity, 0, 0, 0, 0, true) */\n      dup2\n      mstore\n      0x20\n      add\n        /* \"contracts/burger.sol\":1485:1489  true */\n      0x01\n        /* \"contracts/burger.sol\":1432:1490  Order(orderseq, JordanSneaker, quantity, 0, 0, 0, 0, true) */\n      iszero\n      iszero\n      dup2\n      mstore\n      pop\n        /* \"contracts/burger.sol\":1413:1419  orders */\n      0x02\n        /* \"contracts/burger.sol\":1413:1429  orders[orderseq] */\n      0x00\n        /* \"contracts/burger.sol\":1420:1428  orderseq */\n      sload(0x04)\n        /* \"contracts/burger.sol\":1413:1429  orders[orderseq] */\n      dup2\n      mstore\n      0x20\n      add\n      swap1\n      dup2\n      mstore\n      0x20\n      add\n      0x00\n      keccak256\n        /* \"contracts/burger.sol\":1413:1490  orders[orderseq] = Order(orderseq, JordanSneaker, quantity, 0, 0, 0, 0, true) */\n      0x00\n      dup3\n      add\n      mload\n      dup2\n      0x00\n      add\n      sstore\n      0x20\n      dup3\n      add\n      mload\n      dup2\n      0x01\n      add\n      swap1\n      dup1\n      mload\n      swap1\n      0x20\n      add\n      swap1\n      tag_69\n      swap3\n      swap2\n      swap1\n      tag_70\n      jump\t// in\n    tag_69:\n      pop\n      0x40\n      dup3\n      add\n      mload\n      dup2\n      0x02\n      add\n      sstore\n      0x60\n      dup3\n      add\n      mload\n      dup2\n      0x03\n      add\n      sstore\n      0x80\n      dup3\n      add\n      mload\n      dup2\n      0x04\n      add\n      sstore\n      0xa0\n      dup3\n      add\n      mload\n      dup2\n      0x05\n      add\n      sstore\n      0xc0\n      dup3\n      add\n      mload\n      dup2\n      0x06\n      add\n      sstore\n      0xe0\n      dup3\n      add\n      mload\n      dup2\n      0x07\n      add\n      exp(0x0100, 0x00)\n      dup2\n      sload\n      dup2\n      0xff\n      mul\n      not\n      and\n      swap1\n      dup4\n      iszero\n      iszero\n      mul\n      or\n      swap1\n      sstore\n      pop\n      swap1\n      pop\n      pop\n        /* \"contracts/burger.sol\":1166:1494  function sendOrder(string memory JordanSneaker, uint quantity) payable public {\t\t\t\t... */\n      pop\n      pop\n      jump\t// out\n        /* \"contracts/burger.sol\":2808:3099  function sendPrice(uint orderNo, uint price) payable public {\t\t... */\n    tag_47:\n        /* \"contracts/burger.sol\":2942:2954  ownerAddress */\n      0x00\n      dup1\n      sload\n      swap1\n      0x0100\n      exp\n      swap1\n      div\n      0xffffffffffffffffffffffffffffffffffffffff\n      and\n        /* \"contracts/burger.sol\":2928:2954  msg.sender == ownerAddress */\n      0xffffffffffffffffffffffffffffffffffffffff\n      and\n        /* \"contracts/burger.sol\":2928:2938  msg.sender */\n      caller\n        /* \"contracts/burger.sol\":2928:2954  msg.sender == ownerAddress */\n      0xffffffffffffffffffffffffffffffffffffffff\n      and\n      eq\n        /* \"contracts/burger.sol\":2920:2955  require(msg.sender == ownerAddress) */\n      tag_72\n      jumpi\n      0x00\n      dup1\n      revert\n    tag_72:\n        /* \"contracts/burger.sol\":3009:3015  orders */\n      0x02\n        /* \"contracts/burger.sol\":3009:3024  orders[orderNo] */\n      0x00\n        /* \"contracts/burger.sol\":3016:3023  orderNo */\n      dup4\n        /* \"contracts/burger.sol\":3009:3024  orders[orderNo] */\n      dup2\n      mstore\n      0x20\n      add\n      swap1\n      dup2\n      mstore\n      0x20\n      add\n      0x00\n      keccak256\n        /* \"contracts/burger.sol\":3009:3032  orders[orderNo].created */\n      0x07\n      add\n      0x00\n      swap1\n      sload\n      swap1\n      0x0100\n      exp\n      swap1\n      div\n      0xff\n      and\n        /* \"contracts/burger.sol\":3001:3033  require(orders[orderNo].created) */\n      tag_73\n      jumpi\n      0x00\n      dup1\n      revert\n    tag_73:\n        /* \"contracts/burger.sol\":3090:3095  price */\n      dup1\n        /* \"contracts/burger.sol\":3066:3072  orders */\n      0x02\n        /* \"contracts/burger.sol\":3066:3081  orders[orderNo] */\n      0x00\n        /* \"contracts/burger.sol\":3073:3080  orderNo */\n      dup5\n        /* \"contracts/burger.sol\":3066:3081  orders[orderNo] */\n      dup2\n      mstore\n      0x20\n      add\n      swap1\n      dup2\n      mstore\n      0x20\n      add\n      0x00\n      keccak256\n        /* \"contracts/burger.sol\":3066:3087  orders[orderNo].price */\n      0x03\n      add\n        /* \"contracts/burger.sol\":3066:3095  orders[orderNo].price = price */\n      dup2\n      swap1\n      sstore\n      pop\n        /* \"contracts/burger.sol\":2808:3099  function sendPrice(uint orderNo, uint price) payable public {\t\t... */\n      pop\n      pop\n      jump\t// out\n    tag_70:\n      dup3\n      dup1\n      sload\n      tag_74\n      swap1\n      tag_53\n      jump\t// in\n    tag_74:\n      swap1\n      0x00\n      mstore\n      keccak256(0x00, 0x20)\n      swap1\n      0x1f\n      add\n      0x20\n      swap1\n      div\n      dup2\n      add\n      swap3\n      dup3\n      tag_76\n      jumpi\n      0x00\n      dup6\n      sstore\n      jump(tag_75)\n    tag_76:\n      dup3\n      0x1f\n      lt\n      tag_77\n      jumpi\n      dup1\n      mload\n      not(0xff)\n      and\n      dup4\n      dup1\n      add\n      or\n      dup6\n      sstore\n      jump(tag_75)\n    tag_77:\n      dup3\n      dup1\n      add\n      0x01\n      add\n      dup6\n      sstore\n      dup3\n      iszero\n      tag_75\n      jumpi\n      swap2\n      dup3\n      add\n    tag_78:\n      dup3\n      dup2\n      gt\n      iszero\n      tag_79\n      jumpi\n      dup3\n      mload\n      dup3\n      sstore\n      swap2\n      0x20\n      add\n      swap2\n      swap1\n      0x01\n      add\n      swap1\n      jump(tag_78)\n    tag_79:\n    tag_75:\n      pop\n      swap1\n      pop\n      tag_80\n      swap2\n      swap1\n      tag_81\n      jump\t// in\n    tag_80:\n      pop\n      swap1\n      jump\t// out\n    tag_81:\n    tag_82:\n      dup1\n      dup3\n      gt\n      iszero\n      tag_83\n      jumpi\n      0x00\n      dup2\n      0x00\n      swap1\n      sstore\n      pop\n      0x01\n      add\n      jump(tag_82)\n    tag_83:\n      pop\n      swap1\n      jump\t// out\n        /* \"#utility.yul\":7:419   */\n    tag_85:\n        /* \"#utility.yul\":85:90   */\n      0x00\n        /* \"#utility.yul\":110:176   */\n      tag_87\n        /* \"#utility.yul\":126:175   */\n      tag_88\n        /* \"#utility.yul\":168:174   */\n      dup5\n        /* \"#utility.yul\":126:175   */\n      tag_89\n      jump\t// in\n    tag_88:\n        /* \"#utility.yul\":110:176   */\n      tag_90\n      jump\t// in\n    tag_87:\n        /* \"#utility.yul\":101:176   */\n      swap1\n      pop\n        /* \"#utility.yul\":199:205   */\n      dup3\n        /* \"#utility.yul\":192:197   */\n      dup2\n        /* \"#utility.yul\":185:206   */\n      mstore\n        /* \"#utility.yul\":237:241   */\n      0x20\n        /* \"#utility.yul\":230:235   */\n      dup2\n        /* \"#utility.yul\":226:242   */\n      add\n        /* \"#utility.yul\":275:278   */\n      dup5\n        /* \"#utility.yul\":266:272   */\n      dup5\n        /* \"#utility.yul\":261:264   */\n      dup5\n        /* \"#utility.yul\":257:273   */\n      add\n        /* \"#utility.yul\":254:279   */\n      gt\n        /* \"#utility.yul\":251:363   */\n      iszero\n      tag_91\n      jumpi\n        /* \"#utility.yul\":282:361   */\n      tag_92\n      tag_93\n      jump\t// in\n    tag_92:\n        /* \"#utility.yul\":251:363   */\n    tag_91:\n        /* \"#utility.yul\":372:413   */\n      tag_94\n        /* \"#utility.yul\":406:412   */\n      dup5\n        /* \"#utility.yul\":401:404   */\n      dup3\n        /* \"#utility.yul\":396:399   */\n      dup6\n        /* \"#utility.yul\":372:413   */\n      tag_95\n      jump\t// in\n    tag_94:\n        /* \"#utility.yul\":91:419   */\n      pop\n        /* \"#utility.yul\":7:419   */\n      swap4\n      swap3\n      pop\n      pop\n      pop\n      jump\t// out\n        /* \"#utility.yul\":439:779   */\n    tag_96:\n        /* \"#utility.yul\":495:500   */\n      0x00\n        /* \"#utility.yul\":544:547   */\n      dup3\n        /* \"#utility.yul\":537:541   */\n      0x1f\n        /* \"#utility.yul\":529:535   */\n      dup4\n        /* \"#utility.yul\":525:542   */\n      add\n        /* \"#utility.yul\":521:548   */\n      slt\n        /* \"#utility.yul\":511:633   */\n      tag_98\n      jumpi\n        /* \"#utility.yul\":552:631   */\n      tag_99\n      tag_100\n      jump\t// in\n    tag_99:\n        /* \"#utility.yul\":511:633   */\n    tag_98:\n        /* \"#utility.yul\":669:675   */\n      dup2\n        /* \"#utility.yul\":656:676   */\n      calldataload\n        /* \"#utility.yul\":694:773   */\n      tag_101\n        /* \"#utility.yul\":769:772   */\n      dup5\n        /* \"#utility.yul\":761:767   */\n      dup3\n        /* \"#utility.yul\":754:758   */\n      0x20\n        /* \"#utility.yul\":746:752   */\n      dup7\n        /* \"#utility.yul\":742:759   */\n      add\n        /* \"#utility.yul\":694:773   */\n      tag_85\n      jump\t// in\n    tag_101:\n        /* \"#utility.yul\":685:773   */\n      swap2\n      pop\n        /* \"#utility.yul\":501:779   */\n      pop\n        /* \"#utility.yul\":439:779   */\n      swap3\n      swap2\n      pop\n      pop\n      jump\t// out\n        /* \"#utility.yul\":785:924   */\n    tag_102:\n        /* \"#utility.yul\":831:836   */\n      0x00\n        /* \"#utility.yul\":869:875   */\n      dup2\n        /* \"#utility.yul\":856:876   */\n      calldataload\n        /* \"#utility.yul\":847:876   */\n      swap1\n      pop\n        /* \"#utility.yul\":885:918   */\n      tag_104\n        /* \"#utility.yul\":912:917   */\n      dup2\n        /* \"#utility.yul\":885:918   */\n      tag_105\n      jump\t// in\n    tag_104:\n        /* \"#utility.yul\":785:924   */\n      swap3\n      swap2\n      pop\n      pop\n      jump\t// out\n        /* \"#utility.yul\":930:1584   */\n    tag_43:\n        /* \"#utility.yul\":1008:1014   */\n      0x00\n        /* \"#utility.yul\":1016:1022   */\n      dup1\n        /* \"#utility.yul\":1065:1067   */\n      0x40\n        /* \"#utility.yul\":1053:1062   */\n      dup4\n        /* \"#utility.yul\":1044:1051   */\n      dup6\n        /* \"#utility.yul\":1040:1063   */\n      sub\n        /* \"#utility.yul\":1036:1068   */\n      slt\n        /* \"#utility.yul\":1033:1152   */\n      iszero\n      tag_107\n      jumpi\n        /* \"#utility.yul\":1071:1150   */\n      tag_108\n      tag_109\n      jump\t// in\n    tag_108:\n        /* \"#utility.yul\":1033:1152   */\n    tag_107:\n        /* \"#utility.yul\":1219:1220   */\n      0x00\n        /* \"#utility.yul\":1208:1217   */\n      dup4\n        /* \"#utility.yul\":1204:1221   */\n      add\n        /* \"#utility.yul\":1191:1222   */\n      calldataload\n        /* \"#utility.yul\":1249:1267   */\n      0xffffffffffffffff\n        /* \"#utility.yul\":1241:1247   */\n      dup2\n        /* \"#utility.yul\":1238:1268   */\n      gt\n        /* \"#utility.yul\":1235:1352   */\n      iszero\n      tag_110\n      jumpi\n        /* \"#utility.yul\":1271:1350   */\n      tag_111\n      tag_112\n      jump\t// in\n    tag_111:\n        /* \"#utility.yul\":1235:1352   */\n    tag_110:\n        /* \"#utility.yul\":1376:1439   */\n      tag_113\n        /* \"#utility.yul\":1431:1438   */\n      dup6\n        /* \"#utility.yul\":1422:1428   */\n      dup3\n        /* \"#utility.yul\":1411:1420   */\n      dup7\n        /* \"#utility.yul\":1407:1429   */\n      add\n        /* \"#utility.yul\":1376:1439   */\n      tag_96\n      jump\t// in\n    tag_113:\n        /* \"#utility.yul\":1366:1439   */\n      swap3\n      pop\n        /* \"#utility.yul\":1162:1449   */\n      pop\n        /* \"#utility.yul\":1488:1490   */\n      0x20\n        /* \"#utility.yul\":1514:1567   */\n      tag_114\n        /* \"#utility.yul\":1559:1566   */\n      dup6\n        /* \"#utility.yul\":1550:1556   */\n      dup3\n        /* \"#utility.yul\":1539:1548   */\n      dup7\n        /* \"#utility.yul\":1535:1557   */\n      add\n        /* \"#utility.yul\":1514:1567   */\n      tag_102\n      jump\t// in\n    tag_114:\n        /* \"#utility.yul\":1504:1567   */\n      swap2\n      pop\n        /* \"#utility.yul\":1459:1577   */\n      pop\n        /* \"#utility.yul\":930:1584   */\n      swap3\n      pop\n      swap3\n      swap1\n      pop\n      jump\t// out\n        /* \"#utility.yul\":1590:1919   */\n    tag_14:\n        /* \"#utility.yul\":1649:1655   */\n      0x00\n        /* \"#utility.yul\":1698:1700   */\n      0x20\n        /* \"#utility.yul\":1686:1695   */\n      dup3\n        /* \"#utility.yul\":1677:1684   */\n      dup5\n        /* \"#utility.yul\":1673:1696   */\n      sub\n        /* \"#utility.yul\":1669:1701   */\n      slt\n        /* \"#utility.yul\":1666:1785   */\n      iszero\n      tag_116\n      jumpi\n        /* \"#utility.yul\":1704:1783   */\n      tag_117\n      tag_109\n      jump\t// in\n    tag_117:\n        /* \"#utility.yul\":1666:1785   */\n    tag_116:\n        /* \"#utility.yul\":1824:1825   */\n      0x00\n        /* \"#utility.yul\":1849:1902   */\n      tag_118\n        /* \"#utility.yul\":1894:1901   */\n      dup5\n        /* \"#utility.yul\":1885:1891   */\n      dup3\n        /* \"#utility.yul\":1874:1883   */\n      dup6\n        /* \"#utility.yul\":1870:1892   */\n      add\n        /* \"#utility.yul\":1849:1902   */\n      tag_102\n      jump\t// in\n    tag_118:\n        /* \"#utility.yul\":1839:1902   */\n      swap2\n      pop\n        /* \"#utility.yul\":1795:1912   */\n      pop\n        /* \"#utility.yul\":1590:1919   */\n      swap3\n      swap2\n      pop\n      pop\n      jump\t// out\n        /* \"#utility.yul\":1925:2399   */\n    tag_31:\n        /* \"#utility.yul\":1993:1999   */\n      0x00\n        /* \"#utility.yul\":2001:2007   */\n      dup1\n        /* \"#utility.yul\":2050:2052   */\n      0x40\n        /* \"#utility.yul\":2038:2047   */\n      dup4\n        /* \"#utility.yul\":2029:2036   */\n      dup6\n        /* \"#utility.yul\":2025:2048   */\n      sub\n        /* \"#utility.yul\":2021:2053   */\n      slt\n        /* \"#utility.yul\":2018:2137   */\n      iszero\n      tag_120\n      jumpi\n        /* \"#utility.yul\":2056:2135   */\n      tag_121\n      tag_109\n      jump\t// in\n    tag_121:\n        /* \"#utility.yul\":2018:2137   */\n    tag_120:\n        /* \"#utility.yul\":2176:2177   */\n      0x00\n        /* \"#utility.yul\":2201:2254   */\n      tag_122\n        /* \"#utility.yul\":2246:2253   */\n      dup6\n        /* \"#utility.yul\":2237:2243   */\n      dup3\n        /* \"#utility.yul\":2226:2235   */\n      dup7\n        /* \"#utility.yul\":2222:2244   */\n      add\n        /* \"#utility.yul\":2201:2254   */\n      tag_102\n      jump\t// in\n    tag_122:\n        /* \"#utility.yul\":2191:2254   */\n      swap3\n      pop\n        /* \"#utility.yul\":2147:2264   */\n      pop\n        /* \"#utility.yul\":2303:2305   */\n      0x20\n        /* \"#utility.yul\":2329:2382   */\n      tag_123\n        /* \"#utility.yul\":2374:2381   */\n      dup6\n        /* \"#utility.yul\":2365:2371   */\n      dup3\n        /* \"#utility.yul\":2354:2363   */\n      dup7\n        /* \"#utility.yul\":2350:2372   */\n      add\n        /* \"#utility.yul\":2329:2382   */\n      tag_102\n      jump\t// in\n    tag_123:\n        /* \"#utility.yul\":2319:2382   */\n      swap2\n      pop\n        /* \"#utility.yul\":2274:2392   */\n      pop\n        /* \"#utility.yul\":1925:2399   */\n      swap3\n      pop\n      swap3\n      swap1\n      pop\n      jump\t// out\n        /* \"#utility.yul\":2405:2547   */\n    tag_124:\n        /* \"#utility.yul\":2508:2540   */\n      tag_126\n        /* \"#utility.yul\":2534:2539   */\n      dup2\n        /* \"#utility.yul\":2508:2540   */\n      tag_127\n      jump\t// in\n    tag_126:\n        /* \"#utility.yul\":2503:2506   */\n      dup3\n        /* \"#utility.yul\":2496:2541   */\n      mstore\n        /* \"#utility.yul\":2405:2547   */\n      pop\n      pop\n      jump\t// out\n        /* \"#utility.yul\":2553:2671   */\n    tag_128:\n        /* \"#utility.yul\":2640:2664   */\n      tag_130\n        /* \"#utility.yul\":2658:2663   */\n      dup2\n        /* \"#utility.yul\":2640:2664   */\n      tag_131\n      jump\t// in\n    tag_130:\n        /* \"#utility.yul\":2635:2638   */\n      dup3\n        /* \"#utility.yul\":2628:2665   */\n      mstore\n        /* \"#utility.yul\":2553:2671   */\n      pop\n      pop\n      jump\t// out\n        /* \"#utility.yul\":2677:3041   */\n    tag_132:\n        /* \"#utility.yul\":2765:2768   */\n      0x00\n        /* \"#utility.yul\":2793:2832   */\n      tag_134\n        /* \"#utility.yul\":2826:2831   */\n      dup3\n        /* \"#utility.yul\":2793:2832   */\n      tag_135\n      jump\t// in\n    tag_134:\n        /* \"#utility.yul\":2848:2919   */\n      tag_136\n        /* \"#utility.yul\":2912:2918   */\n      dup2\n        /* \"#utility.yul\":2907:2910   */\n      dup6\n        /* \"#utility.yul\":2848:2919   */\n      tag_137\n      jump\t// in\n    tag_136:\n        /* \"#utility.yul\":2841:2919   */\n      swap4\n      pop\n        /* \"#utility.yul\":2928:2980   */\n      tag_138\n        /* \"#utility.yul\":2973:2979   */\n      dup2\n        /* \"#utility.yul\":2968:2971   */\n      dup6\n        /* \"#utility.yul\":2961:2965   */\n      0x20\n        /* \"#utility.yul\":2954:2959   */\n      dup7\n        /* \"#utility.yul\":2950:2966   */\n      add\n        /* \"#utility.yul\":2928:2980   */\n      tag_139\n      jump\t// in\n    tag_138:\n        /* \"#utility.yul\":3005:3034   */\n      tag_140\n        /* \"#utility.yul\":3027:3033   */\n      dup2\n        /* \"#utility.yul\":3005:3034   */\n      tag_141\n      jump\t// in\n    tag_140:\n        /* \"#utility.yul\":3000:3003   */\n      dup5\n        /* \"#utility.yul\":2996:3035   */\n      add\n        /* \"#utility.yul\":2989:3035   */\n      swap2\n      pop\n        /* \"#utility.yul\":2769:3041   */\n      pop\n        /* \"#utility.yul\":2677:3041   */\n      swap3\n      swap2\n      pop\n      pop\n      jump\t// out\n        /* \"#utility.yul\":3047:3165   */\n    tag_142:\n        /* \"#utility.yul\":3134:3158   */\n      tag_144\n        /* \"#utility.yul\":3152:3157   */\n      dup2\n        /* \"#utility.yul\":3134:3158   */\n      tag_145\n      jump\t// in\n    tag_144:\n        /* \"#utility.yul\":3129:3132   */\n      dup3\n        /* \"#utility.yul\":3122:3159   */\n      mstore\n        /* \"#utility.yul\":3047:3165   */\n      pop\n      pop\n      jump\t// out\n        /* \"#utility.yul\":3171:3393   */\n    tag_28:\n        /* \"#utility.yul\":3264:3268   */\n      0x00\n        /* \"#utility.yul\":3302:3304   */\n      0x20\n        /* \"#utility.yul\":3291:3300   */\n      dup3\n        /* \"#utility.yul\":3287:3305   */\n      add\n        /* \"#utility.yul\":3279:3305   */\n      swap1\n      pop\n        /* \"#utility.yul\":3315:3386   */\n      tag_147\n        /* \"#utility.yul\":3383:3384   */\n      0x00\n        /* \"#utility.yul\":3372:3381   */\n      dup4\n        /* \"#utility.yul\":3368:3385   */\n      add\n        /* \"#utility.yul\":3359:3365   */\n      dup5\n        /* \"#utility.yul\":3315:3386   */\n      tag_128\n      jump\t// in\n    tag_147:\n        /* \"#utility.yul\":3171:3393   */\n      swap3\n      swap2\n      pop\n      pop\n      jump\t// out\n        /* \"#utility.yul\":3399:3653   */\n    tag_40:\n        /* \"#utility.yul\":3508:3512   */\n      0x00\n        /* \"#utility.yul\":3546:3548   */\n      0x20\n        /* \"#utility.yul\":3535:3544   */\n      dup3\n        /* \"#utility.yul\":3531:3549   */\n      add\n        /* \"#utility.yul\":3523:3549   */\n      swap1\n      pop\n        /* \"#utility.yul\":3559:3646   */\n      tag_149\n        /* \"#utility.yul\":3643:3644   */\n      0x00\n        /* \"#utility.yul\":3632:3641   */\n      dup4\n        /* \"#utility.yul\":3628:3645   */\n      add\n        /* \"#utility.yul\":3619:3625   */\n      dup5\n        /* \"#utility.yul\":3559:3646   */\n      tag_124\n      jump\t// in\n    tag_149:\n        /* \"#utility.yul\":3399:3653   */\n      swap3\n      swap2\n      pop\n      pop\n      jump\t// out\n        /* \"#utility.yul\":3659:4414   */\n    tag_23:\n        /* \"#utility.yul\":3884:3888   */\n      0x00\n        /* \"#utility.yul\":3922:3925   */\n      0xa0\n        /* \"#utility.yul\":3911:3920   */\n      dup3\n        /* \"#utility.yul\":3907:3926   */\n      add\n        /* \"#utility.yul\":3899:3926   */\n      swap1\n      pop\n        /* \"#utility.yul\":3936:4007   */\n      tag_151\n        /* \"#utility.yul\":4004:4005   */\n      0x00\n        /* \"#utility.yul\":3993:4002   */\n      dup4\n        /* \"#utility.yul\":3989:4006   */\n      add\n        /* \"#utility.yul\":3980:3986   */\n      dup9\n        /* \"#utility.yul\":3936:4007   */\n      tag_128\n      jump\t// in\n    tag_151:\n        /* \"#utility.yul\":4054:4063   */\n      dup2\n        /* \"#utility.yul\":4048:4052   */\n      dup2\n        /* \"#utility.yul\":4044:4064   */\n      sub\n        /* \"#utility.yul\":4039:4041   */\n      0x20\n        /* \"#utility.yul\":4028:4037   */\n      dup4\n        /* \"#utility.yul\":4024:4042   */\n      add\n        /* \"#utility.yul\":4017:4065   */\n      mstore\n        /* \"#utility.yul\":4082:4160   */\n      tag_152\n        /* \"#utility.yul\":4155:4159   */\n      dup2\n        /* \"#utility.yul\":4146:4152   */\n      dup8\n        /* \"#utility.yul\":4082:4160   */\n      tag_132\n      jump\t// in\n    tag_152:\n        /* \"#utility.yul\":4074:4160   */\n      swap1\n      pop\n        /* \"#utility.yul\":4170:4242   */\n      tag_153\n        /* \"#utility.yul\":4238:4240   */\n      0x40\n        /* \"#utility.yul\":4227:4236   */\n      dup4\n        /* \"#utility.yul\":4223:4241   */\n      add\n        /* \"#utility.yul\":4214:4220   */\n      dup7\n        /* \"#utility.yul\":4170:4242   */\n      tag_142\n      jump\t// in\n    tag_153:\n        /* \"#utility.yul\":4252:4324   */\n      tag_154\n        /* \"#utility.yul\":4320:4322   */\n      0x60\n        /* \"#utility.yul\":4309:4318   */\n      dup4\n        /* \"#utility.yul\":4305:4323   */\n      add\n        /* \"#utility.yul\":4296:4302   */\n      dup6\n        /* \"#utility.yul\":4252:4324   */\n      tag_142\n      jump\t// in\n    tag_154:\n        /* \"#utility.yul\":4334:4407   */\n      tag_155\n        /* \"#utility.yul\":4402:4405   */\n      0x80\n        /* \"#utility.yul\":4391:4400   */\n      dup4\n        /* \"#utility.yul\":4387:4406   */\n      add\n        /* \"#utility.yul\":4378:4384   */\n      dup5\n        /* \"#utility.yul\":4334:4407   */\n      tag_142\n      jump\t// in\n    tag_155:\n        /* \"#utility.yul\":3659:4414   */\n      swap7\n      swap6\n      pop\n      pop\n      pop\n      pop\n      pop\n      pop\n      jump\t// out\n        /* \"#utility.yul\":4420:4862   */\n    tag_17:\n        /* \"#utility.yul\":4569:4573   */\n      0x00\n        /* \"#utility.yul\":4607:4609   */\n      0x60\n        /* \"#utility.yul\":4596:4605   */\n      dup3\n        /* \"#utility.yul\":4592:4610   */\n      add\n        /* \"#utility.yul\":4584:4610   */\n      swap1\n      pop\n        /* \"#utility.yul\":4620:4691   */\n      tag_157\n        /* \"#utility.yul\":4688:4689   */\n      0x00\n        /* \"#utility.yul\":4677:4686   */\n      dup4\n        /* \"#utility.yul\":4673:4690   */\n      add\n        /* \"#utility.yul\":4664:4670   */\n      dup7\n        /* \"#utility.yul\":4620:4691   */\n      tag_128\n      jump\t// in\n    tag_157:\n        /* \"#utility.yul\":4701:4773   */\n      tag_158\n        /* \"#utility.yul\":4769:4771   */\n      0x20\n        /* \"#utility.yul\":4758:4767   */\n      dup4\n        /* \"#utility.yul\":4754:4772   */\n      add\n        /* \"#utility.yul\":4745:4751   */\n      dup6\n        /* \"#utility.yul\":4701:4773   */\n      tag_142\n      jump\t// in\n    tag_158:\n        /* \"#utility.yul\":4783:4855   */\n      tag_159\n        /* \"#utility.yul\":4851:4853   */\n      0x40\n        /* \"#utility.yul\":4840:4849   */\n      dup4\n        /* \"#utility.yul\":4836:4854   */\n      add\n        /* \"#utility.yul\":4827:4833   */\n      dup5\n        /* \"#utility.yul\":4783:4855   */\n      tag_142\n      jump\t// in\n    tag_159:\n        /* \"#utility.yul\":4420:4862   */\n      swap5\n      swap4\n      pop\n      pop\n      pop\n      pop\n      jump\t// out\n        /* \"#utility.yul\":4868:4997   */\n    tag_90:\n        /* \"#utility.yul\":4902:4908   */\n      0x00\n        /* \"#utility.yul\":4929:4949   */\n      tag_161\n      tag_162\n      jump\t// in\n    tag_161:\n        /* \"#utility.yul\":4919:4949   */\n      swap1\n      pop\n        /* \"#utility.yul\":4958:4991   */\n      tag_163\n        /* \"#utility.yul\":4986:4990   */\n      dup3\n        /* \"#utility.yul\":4978:4984   */\n      dup3\n        /* \"#utility.yul\":4958:4991   */\n      tag_164\n      jump\t// in\n    tag_163:\n        /* \"#utility.yul\":4868:4997   */\n      swap2\n      swap1\n      pop\n      jump\t// out\n        /* \"#utility.yul\":5003:5078   */\n    tag_162:\n        /* \"#utility.yul\":5036:5042   */\n      0x00\n        /* \"#utility.yul\":5069:5071   */\n      0x40\n        /* \"#utility.yul\":5063:5072   */\n      mload\n        /* \"#utility.yul\":5053:5072   */\n      swap1\n      pop\n        /* \"#utility.yul\":5003:5078   */\n      swap1\n      jump\t// out\n        /* \"#utility.yul\":5084:5392   */\n    tag_89:\n        /* \"#utility.yul\":5146:5150   */\n      0x00\n        /* \"#utility.yul\":5236:5254   */\n      0xffffffffffffffff\n        /* \"#utility.yul\":5228:5234   */\n      dup3\n        /* \"#utility.yul\":5225:5255   */\n      gt\n        /* \"#utility.yul\":5222:5278   */\n      iszero\n      tag_167\n      jumpi\n        /* \"#utility.yul\":5258:5276   */\n      tag_168\n      tag_169\n      jump\t// in\n    tag_168:\n        /* \"#utility.yul\":5222:5278   */\n    tag_167:\n        /* \"#utility.yul\":5296:5325   */\n      tag_170\n        /* \"#utility.yul\":5318:5324   */\n      dup3\n        /* \"#utility.yul\":5296:5325   */\n      tag_141\n      jump\t// in\n    tag_170:\n        /* \"#utility.yul\":5288:5325   */\n      swap1\n      pop\n        /* \"#utility.yul\":5380:5384   */\n      0x20\n        /* \"#utility.yul\":5374:5378   */\n      dup2\n        /* \"#utility.yul\":5370:5385   */\n      add\n        /* \"#utility.yul\":5362:5385   */\n      swap1\n      pop\n        /* \"#utility.yul\":5084:5392   */\n      swap2\n      swap1\n      pop\n      jump\t// out\n        /* \"#utility.yul\":5398:5497   */\n    tag_135:\n        /* \"#utility.yul\":5450:5456   */\n      0x00\n        /* \"#utility.yul\":5484:5489   */\n      dup2\n        /* \"#utility.yul\":5478:5490   */\n      mload\n        /* \"#utility.yul\":5468:5490   */\n      swap1\n      pop\n        /* \"#utility.yul\":5398:5497   */\n      swap2\n      swap1\n      pop\n      jump\t// out\n        /* \"#utility.yul\":5503:5672   */\n    tag_137:\n        /* \"#utility.yul\":5587:5598   */\n      0x00\n        /* \"#utility.yul\":5621:5627   */\n      dup3\n        /* \"#utility.yul\":5616:5619   */\n      dup3\n        /* \"#utility.yul\":5609:5628   */\n      mstore\n        /* \"#utility.yul\":5661:5665   */\n      0x20\n        /* \"#utility.yul\":5656:5659   */\n      dup3\n        /* \"#utility.yul\":5652:5666   */\n      add\n        /* \"#utility.yul\":5637:5666   */\n      swap1\n      pop\n        /* \"#utility.yul\":5503:5672   */\n      swap3\n      swap2\n      pop\n      pop\n      jump\t// out\n        /* \"#utility.yul\":5678:5774   */\n    tag_131:\n        /* \"#utility.yul\":5715:5722   */\n      0x00\n        /* \"#utility.yul\":5744:5768   */\n      tag_174\n        /* \"#utility.yul\":5762:5767   */\n      dup3\n        /* \"#utility.yul\":5744:5768   */\n      tag_175\n      jump\t// in\n    tag_174:\n        /* \"#utility.yul\":5733:5768   */\n      swap1\n      pop\n        /* \"#utility.yul\":5678:5774   */\n      swap2\n      swap1\n      pop\n      jump\t// out\n        /* \"#utility.yul\":5780:5884   */\n    tag_127:\n        /* \"#utility.yul\":5825:5832   */\n      0x00\n        /* \"#utility.yul\":5854:5878   */\n      tag_177\n        /* \"#utility.yul\":5872:5877   */\n      dup3\n        /* \"#utility.yul\":5854:5878   */\n      tag_175\n      jump\t// in\n    tag_177:\n        /* \"#utility.yul\":5843:5878   */\n      swap1\n      pop\n        /* \"#utility.yul\":5780:5884   */\n      swap2\n      swap1\n      pop\n      jump\t// out\n        /* \"#utility.yul\":5890:6016   */\n    tag_175:\n        /* \"#utility.yul\":5927:5934   */\n      0x00\n        /* \"#utility.yul\":5967:6009   */\n      0xffffffffffffffffffffffffffffffffffffffff\n        /* \"#utility.yul\":5960:5965   */\n      dup3\n        /* \"#utility.yul\":5956:6010   */\n      and\n        /* \"#utility.yul\":5945:6010   */\n      swap1\n      pop\n        /* \"#utility.yul\":5890:6016   */\n      swap2\n      swap1\n      pop\n      jump\t// out\n        /* \"#utility.yul\":6022:6099   */\n    tag_145:\n        /* \"#utility.yul\":6059:6066   */\n      0x00\n        /* \"#utility.yul\":6088:6093   */\n      dup2\n        /* \"#utility.yul\":6077:6093   */\n      swap1\n      pop\n        /* \"#utility.yul\":6022:6099   */\n      swap2\n      swap1\n      pop\n      jump\t// out\n        /* \"#utility.yul\":6105:6259   */\n    tag_95:\n        /* \"#utility.yul\":6189:6195   */\n      dup3\n        /* \"#utility.yul\":6184:6187   */\n      dup2\n        /* \"#utility.yul\":6179:6182   */\n      dup4\n        /* \"#utility.yul\":6166:6196   */\n      calldatacopy\n        /* \"#utility.yul\":6251:6252   */\n      0x00\n        /* \"#utility.yul\":6242:6248   */\n      dup4\n        /* \"#utility.yul\":6237:6240   */\n      dup4\n        /* \"#utility.yul\":6233:6249   */\n      add\n        /* \"#utility.yul\":6226:6253   */\n      mstore\n        /* \"#utility.yul\":6105:6259   */\n      pop\n      pop\n      pop\n      jump\t// out\n        /* \"#utility.yul\":6265:6572   */\n    tag_139:\n        /* \"#utility.yul\":6333:6334   */\n      0x00\n        /* \"#utility.yul\":6343:6456   */\n    tag_182:\n        /* \"#utility.yul\":6357:6363   */\n      dup4\n        /* \"#utility.yul\":6354:6355   */\n      dup2\n        /* \"#utility.yul\":6351:6364   */\n      lt\n        /* \"#utility.yul\":6343:6456   */\n      iszero\n      tag_184\n      jumpi\n        /* \"#utility.yul\":6442:6443   */\n      dup1\n        /* \"#utility.yul\":6437:6440   */\n      dup3\n        /* \"#utility.yul\":6433:6444   */\n      add\n        /* \"#utility.yul\":6427:6445   */\n      mload\n        /* \"#utility.yul\":6423:6424   */\n      dup2\n        /* \"#utility.yul\":6418:6421   */\n      dup5\n        /* \"#utility.yul\":6414:6425   */\n      add\n        /* \"#utility.yul\":6407:6446   */\n      mstore\n        /* \"#utility.yul\":6379:6381   */\n      0x20\n        /* \"#utility.yul\":6376:6377   */\n      dup2\n        /* \"#utility.yul\":6372:6382   */\n      add\n        /* \"#utility.yul\":6367:6382   */\n      swap1\n      pop\n        /* \"#utility.yul\":6343:6456   */\n      jump(tag_182)\n    tag_184:\n        /* \"#utility.yul\":6474:6480   */\n      dup4\n        /* \"#utility.yul\":6471:6472   */\n      dup2\n        /* \"#utility.yul\":6468:6481   */\n      gt\n        /* \"#utility.yul\":6465:6566   */\n      iszero\n      tag_185\n      jumpi\n        /* \"#utility.yul\":6554:6555   */\n      0x00\n        /* \"#utility.yul\":6545:6551   */\n      dup5\n        /* \"#utility.yul\":6540:6543   */\n      dup5\n        /* \"#utility.yul\":6536:6552   */\n      add\n        /* \"#utility.yul\":6529:6556   */\n      mstore\n        /* \"#utility.yul\":6465:6566   */\n    tag_185:\n        /* \"#utility.yul\":6314:6572   */\n      pop\n        /* \"#utility.yul\":6265:6572   */\n      pop\n      pop\n      pop\n      jump\t// out\n        /* \"#utility.yul\":6578:6898   */\n    tag_53:\n        /* \"#utility.yul\":6622:6628   */\n      0x00\n        /* \"#utility.yul\":6659:6660   */\n      0x02\n        /* \"#utility.yul\":6653:6657   */\n      dup3\n        /* \"#utility.yul\":6649:6661   */\n      div\n        /* \"#utility.yul\":6639:6661   */\n      swap1\n      pop\n        /* \"#utility.yul\":6706:6707   */\n      0x01\n        /* \"#utility.yul\":6700:6704   */\n      dup3\n        /* \"#utility.yul\":6696:6708   */\n      and\n        /* \"#utility.yul\":6727:6745   */\n      dup1\n        /* \"#utility.yul\":6717:6798   */\n      tag_187\n      jumpi\n        /* \"#utility.yul\":6783:6787   */\n      0x7f\n        /* \"#utility.yul\":6775:6781   */\n      dup3\n        /* \"#utility.yul\":6771:6788   */\n      and\n        /* \"#utility.yul\":6761:6788   */\n      swap2\n      pop\n        /* \"#utility.yul\":6717:6798   */\n    tag_187:\n        /* \"#utility.yul\":6845:6847   */\n      0x20\n        /* \"#utility.yul\":6837:6843   */\n      dup3\n        /* \"#utility.yul\":6834:6848   */\n      lt\n        /* \"#utility.yul\":6814:6832   */\n      dup2\n        /* \"#utility.yul\":6811:6849   */\n      eq\n        /* \"#utility.yul\":6808:6892   */\n      iszero\n      tag_188\n      jumpi\n        /* \"#utility.yul\":6864:6882   */\n      tag_189\n      tag_190\n      jump\t// in\n    tag_189:\n        /* \"#utility.yul\":6808:6892   */\n    tag_188:\n        /* \"#utility.yul\":6629:6898   */\n      pop\n        /* \"#utility.yul\":6578:6898   */\n      swap2\n      swap1\n      pop\n      jump\t// out\n        /* \"#utility.yul\":6904:7185   */\n    tag_164:\n        /* \"#utility.yul\":6987:7014   */\n      tag_192\n        /* \"#utility.yul\":7009:7013   */\n      dup3\n        /* \"#utility.yul\":6987:7014   */\n      tag_141\n      jump\t// in\n    tag_192:\n        /* \"#utility.yul\":6979:6985   */\n      dup2\n        /* \"#utility.yul\":6975:7015   */\n      add\n        /* \"#utility.yul\":7117:7123   */\n      dup2\n        /* \"#utility.yul\":7105:7115   */\n      dup2\n        /* \"#utility.yul\":7102:7124   */\n      lt\n        /* \"#utility.yul\":7081:7099   */\n      0xffffffffffffffff\n        /* \"#utility.yul\":7069:7079   */\n      dup3\n        /* \"#utility.yul\":7066:7100   */\n      gt\n        /* \"#utility.yul\":7063:7125   */\n      or\n        /* \"#utility.yul\":7060:7148   */\n      iszero\n      tag_193\n      jumpi\n        /* \"#utility.yul\":7128:7146   */\n      tag_194\n      tag_169\n      jump\t// in\n    tag_194:\n        /* \"#utility.yul\":7060:7148   */\n    tag_193:\n        /* \"#utility.yul\":7168:7178   */\n      dup1\n        /* \"#utility.yul\":7164:7166   */\n      0x40\n        /* \"#utility.yul\":7157:7179   */\n      mstore\n        /* \"#utility.yul\":6947:7185   */\n      pop\n        /* \"#utility.yul\":6904:7185   */\n      pop\n      pop\n      jump\t// out\n        /* \"#utility.yul\":7191:7424   */\n    tag_62:\n        /* \"#utility.yul\":7230:7233   */\n      0x00\n        /* \"#utility.yul\":7253:7277   */\n      tag_196\n        /* \"#utility.yul\":7271:7276   */\n      dup3\n        /* \"#utility.yul\":7253:7277   */\n      tag_145\n      jump\t// in\n    tag_196:\n        /* \"#utility.yul\":7244:7277   */\n      swap2\n      pop\n        /* \"#utility.yul\":7299:7365   */\n      0xffffffffffffffffffffffffffffffffffffffffffffffffffffffffffffffff\n        /* \"#utility.yul\":7292:7297   */\n      dup3\n        /* \"#utility.yul\":7289:7366   */\n      eq\n        /* \"#utility.yul\":7286:7389   */\n      iszero\n      tag_197\n      jumpi\n        /* \"#utility.yul\":7369:7387   */\n      tag_198\n      tag_199\n      jump\t// in\n    tag_198:\n        /* \"#utility.yul\":7286:7389   */\n    tag_197:\n        /* \"#utility.yul\":7416:7417   */\n      0x01\n        /* \"#utility.yul\":7409:7414   */\n      dup3\n        /* \"#utility.yul\":7405:7418   */\n      add\n        /* \"#utility.yul\":7398:7418   */\n      swap1\n      pop\n        /* \"#utility.yul\":7191:7424   */\n      swap2\n      swap1\n      pop\n      jump\t// out\n        /* \"#utility.yul\":7430:7610   */\n    tag_199:\n        /* \"#utility.yul\":7478:7555   */\n      0x4e487b7100000000000000000000000000000000000000000000000000000000\n        /* \"#utility.yul\":7475:7476   */\n      0x00\n        /* \"#utility.yul\":7468:7556   */\n      mstore\n        /* \"#utility.yul\":7575:7579   */\n      0x11\n        /* \"#utility.yul\":7572:7573   */\n      0x04\n        /* \"#utility.yul\":7565:7580   */\n      mstore\n        /* \"#utility.yul\":7599:7603   */\n      0x24\n        /* \"#utility.yul\":7596:7597   */\n      0x00\n        /* \"#utility.yul\":7589:7604   */\n      revert\n        /* \"#utility.yul\":7616:7796   */\n    tag_190:\n        /* \"#utility.yul\":7664:7741   */\n      0x4e487b7100000000000000000000000000000000000000000000000000000000\n        /* \"#utility.yul\":7661:7662   */\n      0x00\n        /* \"#utility.yul\":7654:7742   */\n      mstore\n        /* \"#utility.yul\":7761:7765   */\n      0x22\n        /* \"#utility.yul\":7758:7759   */\n      0x04\n        /* \"#utility.yul\":7751:7766   */\n      mstore\n        /* \"#utility.yul\":7785:7789   */\n      0x24\n        /* \"#utility.yul\":7782:7783   */\n      0x00\n        /* \"#utility.yul\":7775:7790   */\n      revert\n        /* \"#utility.yul\":7802:7982   */\n    tag_169:\n        /* \"#utility.yul\":7850:7927   */\n      0x4e487b7100000000000000000000000000000000000000000000000000000000\n        /* \"#utility.yul\":7847:7848   */\n      0x00\n        /* \"#utility.yul\":7840:7928   */\n      mstore\n        /* \"#utility.yul\":7947:7951   */\n      0x41\n        /* \"#utility.yul\":7944:7945   */\n      0x04\n        /* \"#utility.yul\":7937:7952   */\n      mstore\n        /* \"#utility.yul\":7971:7975   */\n      0x24\n        /* \"#utility.yul\":7968:7969   */\n      0x00\n        /* \"#utility.yul\":7961:7976   */\n      revert\n        /* \"#utility.yul\":7988:8105   */\n    tag_100:\n        /* \"#utility.yul\":8097:8098   */\n      0x00\n        /* \"#utility.yul\":8094:8095   */\n      dup1\n        /* \"#utility.yul\":8087:8099   */\n      revert\n        /* \"#utility.yul\":8111:8228   */\n    tag_93:\n        /* \"#utility.yul\":8220:8221   */\n      0x00\n        /* \"#utility.yul\":8217:8218   */\n      dup1\n        /* \"#utility.yul\":8210:8222   */\n      revert\n        /* \"#utility.yul\":8234:8351   */\n    tag_112:\n        /* \"#utility.yul\":8343:8344   */\n      0x00\n        /* \"#utility.yul\":8340:8341   */\n      dup1\n        /* \"#utility.yul\":8333:8345   */\n      revert\n        /* \"#utility.yul\":8357:8474   */\n    tag_109:\n        /* \"#utility.yul\":8466:8467   */\n      0x00\n        /* \"#utility.yul\":8463:8464   */\n      dup1\n        /* \"#utility.yul\":8456:8468   */\n      revert\n        /* \"#utility.yul\":8480:8582   */\n    tag_141:\n        /* \"#utility.yul\":8521:8527   */\n      0x00\n        /* \"#utility.yul\":8572:8574   */\n      0x1f\n        /* \"#utility.yul\":8568:8575   */\n      not\n        /* \"#utility.yul\":8563:8565   */\n      0x1f\n        /* \"#utility.yul\":8556:8561   */\n      dup4\n        /* \"#utility.yul\":8552:8566   */\n      add\n        /* \"#utility.yul\":8548:8576   */\n      and\n        /* \"#utility.yul\":8538:8576   */\n      swap1\n      pop\n        /* \"#utility.yul\":8480:8582   */\n      swap2\n      swap1\n      pop\n      jump\t// out\n        /* \"#utility.yul\":8588:8710   */\n    tag_105:\n        /* \"#utility.yul\":8661:8685   */\n      tag_209\n        /* \"#utility.yul\":8679:8684   */\n      dup2\n        /* \"#utility.yul\":8661:8685   */\n      tag_145\n      jump\t// in\n    tag_209:\n        /* \"#utility.yul\":8654:8659   */\n      dup2\n        /* \"#utility.yul\":8651:8686   */\n      eq\n        /* \"#utility.yul\":8641:8704   */\n      tag_210\n      jumpi\n        /* \"#utility.yul\":8700:8701   */\n      0x00\n        /* \"#utility.yul\":8697:8698   */\n      dup1\n        /* \"#utility.yul\":8690:8702   */\n      revert\n        /* \"#utility.yul\":8641:8704   */\n    tag_210:\n        /* \"#utility.yul\":8588:8710   */\n      pop\n      jump\t// out\n\n    auxdata: 0xa264697066735822122046ba986712bcaf3d373ff58c1cb18f3fe1ec2898039a17d127cc5631e5027c3464736f6c63430008070033\n}\n",
				"bytecode": {
					"linkReferences": {},
					"object": "6080604052604051610ed4380380610ed4833981810160405281019061002591906100c1565b336000806101000a81548173ffffffffffffffffffffffffffffffffffffffff021916908373ffffffffffffffffffffffffffffffffffffffff16021790555080600160006101000a81548173ffffffffffffffffffffffffffffffffffffffff021916908373ffffffffffffffffffffffffffffffffffffffff1602179055505061013c565b6000815190506100bb81610125565b92915050565b6000602082840312156100d7576100d6610120565b5b60006100e5848285016100ac565b91505092915050565b60006100f982610100565b9050919050565b600073ffffffffffffffffffffffffffffffffffffffff82169050919050565b600080fd5b61012e816100ee565b811461013957600080fd5b50565b610d898061014b6000396000f3fe60806040526004361061007b5760003560e01c80638f5feb981161004e5780638f5feb98146101475780638f84aa09146101635780639670d6991461018e578063cea9e360146101aa5761007b565b80633a23cc0a1461008057806348efc672146100bf57806361c3fe66146101005780636e0fa7be1461012b575b600080fd5b34801561008c57600080fd5b506100a760048036038101906100a29190610942565b6101c6565b6040516100b693929190610aa5565b60405180910390f35b3480156100cb57600080fd5b506100e660048036038101906100e19190610942565b610266565b6040516100f7959493929190610a4b565b60405180910390f35b34801561010c57600080fd5b506101156103b9565b6040516101229190610a15565b60405180910390f35b6101456004803603810190610140919061096f565b6103df565b005b610161600480360381019061015c9190610942565b610507565b005b34801561016f57600080fd5b506101786105ac565b6040516101859190610a30565b60405180910390f35b6101a860048036038101906101a391906108e6565b6105d0565b005b6101c460048036038101906101bf919061096f565b61071a565b005b60008060006003600085815260200190815260200160002060020160009054906101000a900460ff166101f857600080fd5b6000600360008681526020019081526020016000209050600060026000836001015481526020019081526020016000209050600160009054906101000a900473ffffffffffffffffffffffffffffffffffffffff168160000154826005015494509450945050509193909250565b6000606060008060006002600087815260200190815260200160002060070160009054906101000a900460ff1661029c57600080fd5b600160009054906101000a900473ffffffffffffffffffffffffffffffffffffffff16600260008881526020019081526020016000206001016002600089815260200190815260200160002060020154600260008a815260200190815260200160002060030154600260008b81526020019081526020016000206004015483805461032690610bde565b80601f016020809104026020016040519081016040528092919081815260200182805461035290610bde565b801561039f5780601f106103745761010080835404028352916020019161039f565b820191906000526020600020905b81548152906001019060200180831161038257829003601f168201915b505050505093509450945094509450945091939590929450565b600160009054906101000a900473ffffffffffffffffffffffffffffffffffffffff1681565b3373ffffffffffffffffffffffffffffffffffffffff1660008054906101000a900473ffffffffffffffffffffffffffffffffffffffff1673ffffffffffffffffffffffffffffffffffffffff161461043757600080fd5b6002600083815260200190815260200160002060070160009054906101000a900460ff1661046457600080fd5b6005600081548092919061047790610c41565b91905055506040518060600160405280600554815260200183815260200160011515815250600360006005548152602001908152602001600020600082015181600001556020820151816001015560408201518160020160006101000a81548160ff0219169083151502179055509050508060026000848152602001908152602001600020600501819055505050565b3373ffffffffffffffffffffffffffffffffffffffff16600160009054906101000a900473ffffffffffffffffffffffffffffffffffffffff1673ffffffffffffffffffffffffffffffffffffffff161461056157600080fd5b6002600082815260200190815260200160002060070160009054906101000a900460ff1661058e57600080fd5b34600260008381526020019081526020016000206004018190555050565b60008054906101000a900473ffffffffffffffffffffffffffffffffffffffff1681565b600160009054906101000a900473ffffffffffffffffffffffffffffffffffffffff1673ffffffffffffffffffffffffffffffffffffffff163373ffffffffffffffffffffffffffffffffffffffff161461062a57600080fd5b6004600081548092919061063d90610c41565b9190505550604051806101000160405280600454815260200183815260200182815260200160008152602001600081526020016000815260200160008152602001600115158152506002600060045481526020019081526020016000206000820151816000015560208201518160010190805190602001906106c09291906107be565b5060408201518160020155606082015181600301556080820151816004015560a0820151816005015560c0820151816006015560e08201518160070160006101000a81548160ff0219169083151502179055509050505050565b60008054906101000a900473ffffffffffffffffffffffffffffffffffffffff1673ffffffffffffffffffffffffffffffffffffffff163373ffffffffffffffffffffffffffffffffffffffff161461077257600080fd5b6002600083815260200190815260200160002060070160009054906101000a900460ff1661079f57600080fd5b8060026000848152602001908152602001600020600301819055505050565b8280546107ca90610bde565b90600052602060002090601f0160209004810192826107ec5760008555610833565b82601f1061080557805160ff1916838001178555610833565b82800160010185558215610833579182015b82811115610832578251825591602001919060010190610817565b5b5090506108409190610844565b5090565b5b8082111561085d576000816000905550600101610845565b5090565b600061087461086f84610b01565b610adc565b9050828152602081018484840111156108905761088f610d1c565b5b61089b848285610b9c565b509392505050565b600082601f8301126108b8576108b7610d17565b5b81356108c8848260208601610861565b91505092915050565b6000813590506108e081610d3c565b92915050565b600080604083850312156108fd576108fc610d26565b5b600083013567ffffffffffffffff81111561091b5761091a610d21565b5b610927858286016108a3565b9250506020610938858286016108d1565b9150509250929050565b60006020828403121561095857610957610d26565b5b6000610966848285016108d1565b91505092915050565b6000806040838503121561098657610985610d26565b5b6000610994858286016108d1565b92505060206109a5858286016108d1565b9150509250929050565b6109b881610b60565b82525050565b6109c781610b4e565b82525050565b60006109d882610b32565b6109e28185610b3d565b93506109f2818560208601610bab565b6109fb81610d2b565b840191505092915050565b610a0f81610b92565b82525050565b6000602082019050610a2a60008301846109be565b92915050565b6000602082019050610a4560008301846109af565b92915050565b600060a082019050610a6060008301886109be565b8181036020830152610a7281876109cd565b9050610a816040830186610a06565b610a8e6060830185610a06565b610a9b6080830184610a06565b9695505050505050565b6000606082019050610aba60008301866109be565b610ac76020830185610a06565b610ad46040830184610a06565b949350505050565b6000610ae6610af7565b9050610af28282610c10565b919050565b6000604051905090565b600067ffffffffffffffff821115610b1c57610b1b610ce8565b5b610b2582610d2b565b9050602081019050919050565b600081519050919050565b600082825260208201905092915050565b6000610b5982610b72565b9050919050565b6000610b6b82610b72565b9050919050565b600073ffffffffffffffffffffffffffffffffffffffff82169050919050565b6000819050919050565b82818337600083830152505050565b60005b83811015610bc9578082015181840152602081019050610bae565b83811115610bd8576000848401525b50505050565b60006002820490506001821680610bf657607f821691505b60208210811415610c0a57610c09610cb9565b5b50919050565b610c1982610d2b565b810181811067ffffffffffffffff82111715610c3857610c37610ce8565b5b80604052505050565b6000610c4c82610b92565b91507fffffffffffffffffffffffffffffffffffffffffffffffffffffffffffffffff821415610c7f57610c7e610c8a565b5b600182019050919050565b7f4e487b7100000000000000000000000000000000000000000000000000000000600052601160045260246000fd5b7f4e487b7100000000000000000000000000000000000000000000000000000000600052602260045260246000fd5b7f4e487b7100000000000000000000000000000000000000000000000000000000600052604160045260246000fd5b600080fd5b600080fd5b600080fd5b600080fd5b6000601f19601f8301169050919050565b610d4581610b92565b8114610d5057600080fd5b5056fea264697066735822122046ba986712bcaf3d373ff58c1cb18f3fe1ec2898039a17d127cc5631e5027c3464736f6c63430008070033",
					"opcodes": "PUSH1 0x80 PUSH1 0x40 MSTORE PUSH1 0x40 MLOAD PUSH2 0xED4 CODESIZE SUB DUP1 PUSH2 0xED4 DUP4 CODECOPY DUP2 DUP2 ADD PUSH1 0x40 MSTORE DUP2 ADD SWAP1 PUSH2 0x25 SWAP2 SWAP1 PUSH2 0xC1 JUMP JUMPDEST CALLER PUSH1 0x0 DUP1 PUSH2 0x100 EXP DUP2 SLOAD DUP2 PUSH20 0xFFFFFFFFFFFFFFFFFFFFFFFFFFFFFFFFFFFFFFFF MUL NOT AND SWAP1 DUP4 PUSH20 0xFFFFFFFFFFFFFFFFFFFFFFFFFFFFFFFFFFFFFFFF AND MUL OR SWAP1 SSTORE POP DUP1 PUSH1 0x1 PUSH1 0x0 PUSH2 0x100 EXP DUP2 SLOAD DUP2 PUSH20 0xFFFFFFFFFFFFFFFFFFFFFFFFFFFFFFFFFFFFFFFF MUL NOT AND SWAP1 DUP4 PUSH20 0xFFFFFFFFFFFFFFFFFFFFFFFFFFFFFFFFFFFFFFFF AND MUL OR SWAP1 SSTORE POP POP PUSH2 0x13C JUMP JUMPDEST PUSH1 0x0 DUP2 MLOAD SWAP1 POP PUSH2 0xBB DUP2 PUSH2 0x125 JUMP JUMPDEST SWAP3 SWAP2 POP POP JUMP JUMPDEST PUSH1 0x0 PUSH1 0x20 DUP3 DUP5 SUB SLT ISZERO PUSH2 0xD7 JUMPI PUSH2 0xD6 PUSH2 0x120 JUMP JUMPDEST JUMPDEST PUSH1 0x0 PUSH2 0xE5 DUP5 DUP3 DUP6 ADD PUSH2 0xAC JUMP JUMPDEST SWAP2 POP POP SWAP3 SWAP2 POP POP JUMP JUMPDEST PUSH1 0x0 PUSH2 0xF9 DUP3 PUSH2 0x100 JUMP JUMPDEST SWAP1 POP SWAP2 SWAP1 POP JUMP JUMPDEST PUSH1 0x0 PUSH20 0xFFFFFFFFFFFFFFFFFFFFFFFFFFFFFFFFFFFFFFFF DUP3 AND SWAP1 POP SWAP2 SWAP1 POP JUMP JUMPDEST PUSH1 0x0 DUP1 REVERT JUMPDEST PUSH2 0x12E DUP2 PUSH2 0xEE JUMP JUMPDEST DUP2 EQ PUSH2 0x139 JUMPI PUSH1 0x0 DUP1 REVERT JUMPDEST POP JUMP JUMPDEST PUSH2 0xD89 DUP1 PUSH2 0x14B PUSH1 0x0 CODECOPY PUSH1 0x0 RETURN INVALID PUSH1 0x80 PUSH1 0x40 MSTORE PUSH1 0x4 CALLDATASIZE LT PUSH2 0x7B JUMPI PUSH1 0x0 CALLDATALOAD PUSH1 0xE0 SHR DUP1 PUSH4 0x8F5FEB98 GT PUSH2 0x4E JUMPI DUP1 PUSH4 0x8F5FEB98 EQ PUSH2 0x147 JUMPI DUP1 PUSH4 0x8F84AA09 EQ PUSH2 0x163 JUMPI DUP1 PUSH4 0x9670D699 EQ PUSH2 0x18E JUMPI DUP1 PUSH4 0xCEA9E360 EQ PUSH2 0x1AA JUMPI PUSH2 0x7B JUMP JUMPDEST DUP1 PUSH4 0x3A23CC0A EQ PUSH2 0x80 JUMPI DUP1 PUSH4 0x48EFC672 EQ PUSH2 0xBF JUMPI DUP1 PUSH4 0x61C3FE66 EQ PUSH2 0x100 JUMPI DUP1 PUSH4 0x6E0FA7BE EQ PUSH2 0x12B JUMPI JUMPDEST PUSH1 0x0 DUP1 REVERT JUMPDEST CALLVALUE DUP1 ISZERO PUSH2 0x8C JUMPI PUSH1 0x0 DUP1 REVERT JUMPDEST POP PUSH2 0xA7 PUSH1 0x4 DUP1 CALLDATASIZE SUB DUP2 ADD SWAP1 PUSH2 0xA2 SWAP2 SWAP1 PUSH2 0x942 JUMP JUMPDEST PUSH2 0x1C6 JUMP JUMPDEST PUSH1 0x40 MLOAD PUSH2 0xB6 SWAP4 SWAP3 SWAP2 SWAP1 PUSH2 0xAA5 JUMP JUMPDEST PUSH1 0x40 MLOAD DUP1 SWAP2 SUB SWAP1 RETURN JUMPDEST CALLVALUE DUP1 ISZERO PUSH2 0xCB JUMPI PUSH1 0x0 DUP1 REVERT JUMPDEST POP PUSH2 0xE6 PUSH1 0x4 DUP1 CALLDATASIZE SUB DUP2 ADD SWAP1 PUSH2 0xE1 SWAP2 SWAP1 PUSH2 0x942 JUMP JUMPDEST PUSH2 0x266 JUMP JUMPDEST PUSH1 0x40 MLOAD PUSH2 0xF7 SWAP6 SWAP5 SWAP4 SWAP3 SWAP2 SWAP1 PUSH2 0xA4B JUMP JUMPDEST PUSH1 0x40 MLOAD DUP1 SWAP2 SUB SWAP1 RETURN JUMPDEST CALLVALUE DUP1 ISZERO PUSH2 0x10C JUMPI PUSH1 0x0 DUP1 REVERT JUMPDEST POP PUSH2 0x115 PUSH2 0x3B9 JUMP JUMPDEST PUSH1 0x40 MLOAD PUSH2 0x122 SWAP2 SWAP1 PUSH2 0xA15 JUMP JUMPDEST PUSH1 0x40 MLOAD DUP1 SWAP2 SUB SWAP1 RETURN JUMPDEST PUSH2 0x145 PUSH1 0x4 DUP1 CALLDATASIZE SUB DUP2 ADD SWAP1 PUSH2 0x140 SWAP2 SWAP1 PUSH2 0x96F JUMP JUMPDEST PUSH2 0x3DF JUMP JUMPDEST STOP JUMPDEST PUSH2 0x161 PUSH1 0x4 DUP1 CALLDATASIZE SUB DUP2 ADD SWAP1 PUSH2 0x15C SWAP2 SWAP1 PUSH2 0x942 JUMP JUMPDEST PUSH2 0x507 JUMP JUMPDEST STOP JUMPDEST CALLVALUE DUP1 ISZERO PUSH2 0x16F JUMPI PUSH1 0x0 DUP1 REVERT JUMPDEST POP PUSH2 0x178 PUSH2 0x5AC JUMP JUMPDEST PUSH1 0x40 MLOAD PUSH2 0x185 SWAP2 SWAP1 PUSH2 0xA30 JUMP JUMPDEST PUSH1 0x40 MLOAD DUP1 SWAP2 SUB SWAP1 RETURN JUMPDEST PUSH2 0x1A8 PUSH1 0x4 DUP1 CALLDATASIZE SUB DUP2 ADD SWAP1 PUSH2 0x1A3 SWAP2 SWAP1 PUSH2 0x8E6 JUMP JUMPDEST PUSH2 0x5D0 JUMP JUMPDEST STOP JUMPDEST PUSH2 0x1C4 PUSH1 0x4 DUP1 CALLDATASIZE SUB DUP2 ADD SWAP1 PUSH2 0x1BF SWAP2 SWAP1 PUSH2 0x96F JUMP JUMPDEST PUSH2 0x71A JUMP JUMPDEST STOP JUMPDEST PUSH1 0x0 DUP1 PUSH1 0x0 PUSH1 0x3 PUSH1 0x0 DUP6 DUP2 MSTORE PUSH1 0x20 ADD SWAP1 DUP2 MSTORE PUSH1 0x20 ADD PUSH1 0x0 KECCAK256 PUSH1 0x2 ADD PUSH1 0x0 SWAP1 SLOAD SWAP1 PUSH2 0x100 EXP SWAP1 DIV PUSH1 0xFF AND PUSH2 0x1F8 JUMPI PUSH1 0x0 DUP1 REVERT JUMPDEST PUSH1 0x0 PUSH1 0x3 PUSH1 0x0 DUP7 DUP2 MSTORE PUSH1 0x20 ADD SWAP1 DUP2 MSTORE PUSH1 0x20 ADD PUSH1 0x0 KECCAK256 SWAP1 POP PUSH1 0x0 PUSH1 0x2 PUSH1 0x0 DUP4 PUSH1 0x1 ADD SLOAD DUP2 MSTORE PUSH1 0x20 ADD SWAP1 DUP2 MSTORE PUSH1 0x20 ADD PUSH1 0x0 KECCAK256 SWAP1 POP PUSH1 0x1 PUSH1 0x0 SWAP1 SLOAD SWAP1 PUSH2 0x100 EXP SWAP1 DIV PUSH20 0xFFFFFFFFFFFFFFFFFFFFFFFFFFFFFFFFFFFFFFFF AND DUP2 PUSH1 0x0 ADD SLOAD DUP3 PUSH1 0x5 ADD SLOAD SWAP5 POP SWAP5 POP SWAP5 POP POP POP SWAP2 SWAP4 SWAP1 SWAP3 POP JUMP JUMPDEST PUSH1 0x0 PUSH1 0x60 PUSH1 0x0 DUP1 PUSH1 0x0 PUSH1 0x2 PUSH1 0x0 DUP8 DUP2 MSTORE PUSH1 0x20 ADD SWAP1 DUP2 MSTORE PUSH1 0x20 ADD PUSH1 0x0 KECCAK256 PUSH1 0x7 ADD PUSH1 0x0 SWAP1 SLOAD SWAP1 PUSH2 0x100 EXP SWAP1 DIV PUSH1 0xFF AND PUSH2 0x29C JUMPI PUSH1 0x0 DUP1 REVERT JUMPDEST PUSH1 0x1 PUSH1 0x0 SWAP1 SLOAD SWAP1 PUSH2 0x100 EXP SWAP1 DIV PUSH20 0xFFFFFFFFFFFFFFFFFFFFFFFFFFFFFFFFFFFFFFFF AND PUSH1 0x2 PUSH1 0x0 DUP9 DUP2 MSTORE PUSH1 0x20 ADD SWAP1 DUP2 MSTORE PUSH1 0x20 ADD PUSH1 0x0 KECCAK256 PUSH1 0x1 ADD PUSH1 0x2 PUSH1 0x0 DUP10 DUP2 MSTORE PUSH1 0x20 ADD SWAP1 DUP2 MSTORE PUSH1 0x20 ADD PUSH1 0x0 KECCAK256 PUSH1 0x2 ADD SLOAD PUSH1 0x2 PUSH1 0x0 DUP11 DUP2 MSTORE PUSH1 0x20 ADD SWAP1 DUP2 MSTORE PUSH1 0x20 ADD PUSH1 0x0 KECCAK256 PUSH1 0x3 ADD SLOAD PUSH1 0x2 PUSH1 0x0 DUP12 DUP2 MSTORE PUSH1 0x20 ADD SWAP1 DUP2 MSTORE PUSH1 0x20 ADD PUSH1 0x0 KECCAK256 PUSH1 0x4 ADD SLOAD DUP4 DUP1 SLOAD PUSH2 0x326 SWAP1 PUSH2 0xBDE JUMP JUMPDEST DUP1 PUSH1 0x1F ADD PUSH1 0x20 DUP1 SWAP2 DIV MUL PUSH1 0x20 ADD PUSH1 0x40 MLOAD SWAP1 DUP2 ADD PUSH1 0x40 MSTORE DUP1 SWAP3 SWAP2 SWAP1 DUP2 DUP2 MSTORE PUSH1 0x20 ADD DUP3 DUP1 SLOAD PUSH2 0x352 SWAP1 PUSH2 0xBDE JUMP JUMPDEST DUP1 ISZERO PUSH2 0x39F JUMPI DUP1 PUSH1 0x1F LT PUSH2 0x374 JUMPI PUSH2 0x100 DUP1 DUP4 SLOAD DIV MUL DUP4 MSTORE SWAP2 PUSH1 0x20 ADD SWAP2 PUSH2 0x39F JUMP JUMPDEST DUP3 ADD SWAP2 SWAP1 PUSH1 0x0 MSTORE PUSH1 0x20 PUSH1 0x0 KECCAK256 SWAP1 JUMPDEST DUP2 SLOAD DUP2 MSTORE SWAP1 PUSH1 0x1 ADD SWAP1 PUSH1 0x20 ADD DUP1 DUP4 GT PUSH2 0x382 JUMPI DUP3 SWAP1 SUB PUSH1 0x1F AND DUP3 ADD SWAP2 JUMPDEST POP POP POP POP POP SWAP4 POP SWAP5 POP SWAP5 POP SWAP5 POP SWAP5 POP SWAP5 POP SWAP2 SWAP4 SWAP6 SWAP1 SWAP3 SWAP5 POP JUMP JUMPDEST PUSH1 0x1 PUSH1 0x0 SWAP1 SLOAD SWAP1 PUSH2 0x100 EXP SWAP1 DIV PUSH20 0xFFFFFFFFFFFFFFFFFFFFFFFFFFFFFFFFFFFFFFFF AND DUP2 JUMP JUMPDEST CALLER PUSH20 0xFFFFFFFFFFFFFFFFFFFFFFFFFFFFFFFFFFFFFFFF AND PUSH1 0x0 DUP1 SLOAD SWAP1 PUSH2 0x100 EXP SWAP1 DIV PUSH20 0xFFFFFFFFFFFFFFFFFFFFFFFFFFFFFFFFFFFFFFFF AND PUSH20 0xFFFFFFFFFFFFFFFFFFFFFFFFFFFFFFFFFFFFFFFF AND EQ PUSH2 0x437 JUMPI PUSH1 0x0 DUP1 REVERT JUMPDEST PUSH1 0x2 PUSH1 0x0 DUP4 DUP2 MSTORE PUSH1 0x20 ADD SWAP1 DUP2 MSTORE PUSH1 0x20 ADD PUSH1 0x0 KECCAK256 PUSH1 0x7 ADD PUSH1 0x0 SWAP1 SLOAD SWAP1 PUSH2 0x100 EXP SWAP1 DIV PUSH1 0xFF AND PUSH2 0x464 JUMPI PUSH1 0x0 DUP1 REVERT JUMPDEST PUSH1 0x5 PUSH1 0x0 DUP2 SLOAD DUP1 SWAP3 SWAP2 SWAP1 PUSH2 0x477 SWAP1 PUSH2 0xC41 JUMP JUMPDEST SWAP2 SWAP1 POP SSTORE POP PUSH1 0x40 MLOAD DUP1 PUSH1 0x60 ADD PUSH1 0x40 MSTORE DUP1 PUSH1 0x5 SLOAD DUP2 MSTORE PUSH1 0x20 ADD DUP4 DUP2 MSTORE PUSH1 0x20 ADD PUSH1 0x1 ISZERO ISZERO DUP2 MSTORE POP PUSH1 0x3 PUSH1 0x0 PUSH1 0x5 SLOAD DUP2 MSTORE PUSH1 0x20 ADD SWAP1 DUP2 MSTORE PUSH1 0x20 ADD PUSH1 0x0 KECCAK256 PUSH1 0x0 DUP3 ADD MLOAD DUP2 PUSH1 0x0 ADD SSTORE PUSH1 0x20 DUP3 ADD MLOAD DUP2 PUSH1 0x1 ADD SSTORE PUSH1 0x40 DUP3 ADD MLOAD DUP2 PUSH1 0x2 ADD PUSH1 0x0 PUSH2 0x100 EXP DUP2 SLOAD DUP2 PUSH1 0xFF MUL NOT AND SWAP1 DUP4 ISZERO ISZERO MUL OR SWAP1 SSTORE POP SWAP1 POP POP DUP1 PUSH1 0x2 PUSH1 0x0 DUP5 DUP2 MSTORE PUSH1 0x20 ADD SWAP1 DUP2 MSTORE PUSH1 0x20 ADD PUSH1 0x0 KECCAK256 PUSH1 0x5 ADD DUP2 SWAP1 SSTORE POP POP POP JUMP JUMPDEST CALLER PUSH20 0xFFFFFFFFFFFFFFFFFFFFFFFFFFFFFFFFFFFFFFFF AND PUSH1 0x1 PUSH1 0x0 SWAP1 SLOAD SWAP1 PUSH2 0x100 EXP SWAP1 DIV PUSH20 0xFFFFFFFFFFFFFFFFFFFFFFFFFFFFFFFFFFFFFFFF AND PUSH20 0xFFFFFFFFFFFFFFFFFFFFFFFFFFFFFFFFFFFFFFFF AND EQ PUSH2 0x561 JUMPI PUSH1 0x0 DUP1 REVERT JUMPDEST PUSH1 0x2 PUSH1 0x0 DUP3 DUP2 MSTORE PUSH1 0x20 ADD SWAP1 DUP2 MSTORE PUSH1 0x20 ADD PUSH1 0x0 KECCAK256 PUSH1 0x7 ADD PUSH1 0x0 SWAP1 SLOAD SWAP1 PUSH2 0x100 EXP SWAP1 DIV PUSH1 0xFF AND PUSH2 0x58E JUMPI PUSH1 0x0 DUP1 REVERT JUMPDEST CALLVALUE PUSH1 0x2 PUSH1 0x0 DUP4 DUP2 MSTORE PUSH1 0x20 ADD SWAP1 DUP2 MSTORE PUSH1 0x20 ADD PUSH1 0x0 KECCAK256 PUSH1 0x4 ADD DUP2 SWAP1 SSTORE POP POP JUMP JUMPDEST PUSH1 0x0 DUP1 SLOAD SWAP1 PUSH2 0x100 EXP SWAP1 DIV PUSH20 0xFFFFFFFFFFFFFFFFFFFFFFFFFFFFFFFFFFFFFFFF AND DUP2 JUMP JUMPDEST PUSH1 0x1 PUSH1 0x0 SWAP1 SLOAD SWAP1 PUSH2 0x100 EXP SWAP1 DIV PUSH20 0xFFFFFFFFFFFFFFFFFFFFFFFFFFFFFFFFFFFFFFFF AND PUSH20 0xFFFFFFFFFFFFFFFFFFFFFFFFFFFFFFFFFFFFFFFF AND CALLER PUSH20 0xFFFFFFFFFFFFFFFFFFFFFFFFFFFFFFFFFFFFFFFF AND EQ PUSH2 0x62A JUMPI PUSH1 0x0 DUP1 REVERT JUMPDEST PUSH1 0x4 PUSH1 0x0 DUP2 SLOAD DUP1 SWAP3 SWAP2 SWAP1 PUSH2 0x63D SWAP1 PUSH2 0xC41 JUMP JUMPDEST SWAP2 SWAP1 POP SSTORE POP PUSH1 0x40 MLOAD DUP1 PUSH2 0x100 ADD PUSH1 0x40 MSTORE DUP1 PUSH1 0x4 SLOAD DUP2 MSTORE PUSH1 0x20 ADD DUP4 DUP2 MSTORE PUSH1 0x20 ADD DUP3 DUP2 MSTORE PUSH1 0x20 ADD PUSH1 0x0 DUP2 MSTORE PUSH1 0x20 ADD PUSH1 0x0 DUP2 MSTORE PUSH1 0x20 ADD PUSH1 0x0 DUP2 MSTORE PUSH1 0x20 ADD PUSH1 0x0 DUP2 MSTORE PUSH1 0x20 ADD PUSH1 0x1 ISZERO ISZERO DUP2 MSTORE POP PUSH1 0x2 PUSH1 0x0 PUSH1 0x4 SLOAD DUP2 MSTORE PUSH1 0x20 ADD SWAP1 DUP2 MSTORE PUSH1 0x20 ADD PUSH1 0x0 KECCAK256 PUSH1 0x0 DUP3 ADD MLOAD DUP2 PUSH1 0x0 ADD SSTORE PUSH1 0x20 DUP3 ADD MLOAD DUP2 PUSH1 0x1 ADD SWAP1 DUP1 MLOAD SWAP1 PUSH1 0x20 ADD SWAP1 PUSH2 0x6C0 SWAP3 SWAP2 SWAP1 PUSH2 0x7BE JUMP JUMPDEST POP PUSH1 0x40 DUP3 ADD MLOAD DUP2 PUSH1 0x2 ADD SSTORE PUSH1 0x60 DUP3 ADD MLOAD DUP2 PUSH1 0x3 ADD SSTORE PUSH1 0x80 DUP3 ADD MLOAD DUP2 PUSH1 0x4 ADD SSTORE PUSH1 0xA0 DUP3 ADD MLOAD DUP2 PUSH1 0x5 ADD SSTORE PUSH1 0xC0 DUP3 ADD MLOAD DUP2 PUSH1 0x6 ADD SSTORE PUSH1 0xE0 DUP3 ADD MLOAD DUP2 PUSH1 0x7 ADD PUSH1 0x0 PUSH2 0x100 EXP DUP2 SLOAD DUP2 PUSH1 0xFF MUL NOT AND SWAP1 DUP4 ISZERO ISZERO MUL OR SWAP1 SSTORE POP SWAP1 POP POP POP POP JUMP JUMPDEST PUSH1 0x0 DUP1 SLOAD SWAP1 PUSH2 0x100 EXP SWAP1 DIV PUSH20 0xFFFFFFFFFFFFFFFFFFFFFFFFFFFFFFFFFFFFFFFF AND PUSH20 0xFFFFFFFFFFFFFFFFFFFFFFFFFFFFFFFFFFFFFFFF AND CALLER PUSH20 0xFFFFFFFFFFFFFFFFFFFFFFFFFFFFFFFFFFFFFFFF AND EQ PUSH2 0x772 JUMPI PUSH1 0x0 DUP1 REVERT JUMPDEST PUSH1 0x2 PUSH1 0x0 DUP4 DUP2 MSTORE PUSH1 0x20 ADD SWAP1 DUP2 MSTORE PUSH1 0x20 ADD PUSH1 0x0 KECCAK256 PUSH1 0x7 ADD PUSH1 0x0 SWAP1 SLOAD SWAP1 PUSH2 0x100 EXP SWAP1 DIV PUSH1 0xFF AND PUSH2 0x79F JUMPI PUSH1 0x0 DUP1 REVERT JUMPDEST DUP1 PUSH1 0x2 PUSH1 0x0 DUP5 DUP2 MSTORE PUSH1 0x20 ADD SWAP1 DUP2 MSTORE PUSH1 0x20 ADD PUSH1 0x0 KECCAK256 PUSH1 0x3 ADD DUP2 SWAP1 SSTORE POP POP POP JUMP JUMPDEST DUP3 DUP1 SLOAD PUSH2 0x7CA SWAP1 PUSH2 0xBDE JUMP JUMPDEST SWAP1 PUSH1 0x0 MSTORE PUSH1 0x20 PUSH1 0x0 KECCAK256 SWAP1 PUSH1 0x1F ADD PUSH1 0x20 SWAP1 DIV DUP2 ADD SWAP3 DUP3 PUSH2 0x7EC JUMPI PUSH1 0x0 DUP6 SSTORE PUSH2 0x833 JUMP JUMPDEST DUP3 PUSH1 0x1F LT PUSH2 0x805 JUMPI DUP1 MLOAD PUSH1 0xFF NOT AND DUP4 DUP1 ADD OR DUP6 SSTORE PUSH2 0x833 JUMP JUMPDEST DUP3 DUP1 ADD PUSH1 0x1 ADD DUP6 SSTORE DUP3 ISZERO PUSH2 0x833 JUMPI SWAP2 DUP3 ADD JUMPDEST DUP3 DUP2 GT ISZERO PUSH2 0x832 JUMPI DUP3 MLOAD DUP3 SSTORE SWAP2 PUSH1 0x20 ADD SWAP2 SWAP1 PUSH1 0x1 ADD SWAP1 PUSH2 0x817 JUMP JUMPDEST JUMPDEST POP SWAP1 POP PUSH2 0x840 SWAP2 SWAP1 PUSH2 0x844 JUMP JUMPDEST POP SWAP1 JUMP JUMPDEST JUMPDEST DUP1 DUP3 GT ISZERO PUSH2 0x85D JUMPI PUSH1 0x0 DUP2 PUSH1 0x0 SWAP1 SSTORE POP PUSH1 0x1 ADD PUSH2 0x845 JUMP JUMPDEST POP SWAP1 JUMP JUMPDEST PUSH1 0x0 PUSH2 0x874 PUSH2 0x86F DUP5 PUSH2 0xB01 JUMP JUMPDEST PUSH2 0xADC JUMP JUMPDEST SWAP1 POP DUP3 DUP2 MSTORE PUSH1 0x20 DUP2 ADD DUP5 DUP5 DUP5 ADD GT ISZERO PUSH2 0x890 JUMPI PUSH2 0x88F PUSH2 0xD1C JUMP JUMPDEST JUMPDEST PUSH2 0x89B DUP5 DUP3 DUP6 PUSH2 0xB9C JUMP JUMPDEST POP SWAP4 SWAP3 POP POP POP JUMP JUMPDEST PUSH1 0x0 DUP3 PUSH1 0x1F DUP4 ADD SLT PUSH2 0x8B8 JUMPI PUSH2 0x8B7 PUSH2 0xD17 JUMP JUMPDEST JUMPDEST DUP2 CALLDATALOAD PUSH2 0x8C8 DUP5 DUP3 PUSH1 0x20 DUP7 ADD PUSH2 0x861 JUMP JUMPDEST SWAP2 POP POP SWAP3 SWAP2 POP POP JUMP JUMPDEST PUSH1 0x0 DUP2 CALLDATALOAD SWAP1 POP PUSH2 0x8E0 DUP2 PUSH2 0xD3C JUMP JUMPDEST SWAP3 SWAP2 POP POP JUMP JUMPDEST PUSH1 0x0 DUP1 PUSH1 0x40 DUP4 DUP6 SUB SLT ISZERO PUSH2 0x8FD JUMPI PUSH2 0x8FC PUSH2 0xD26 JUMP JUMPDEST JUMPDEST PUSH1 0x0 DUP4 ADD CALLDATALOAD PUSH8 0xFFFFFFFFFFFFFFFF DUP2 GT ISZERO PUSH2 0x91B JUMPI PUSH2 0x91A PUSH2 0xD21 JUMP JUMPDEST JUMPDEST PUSH2 0x927 DUP6 DUP3 DUP7 ADD PUSH2 0x8A3 JUMP JUMPDEST SWAP3 POP POP PUSH1 0x20 PUSH2 0x938 DUP6 DUP3 DUP7 ADD PUSH2 0x8D1 JUMP JUMPDEST SWAP2 POP POP SWAP3 POP SWAP3 SWAP1 POP JUMP JUMPDEST PUSH1 0x0 PUSH1 0x20 DUP3 DUP5 SUB SLT ISZERO PUSH2 0x958 JUMPI PUSH2 0x957 PUSH2 0xD26 JUMP JUMPDEST JUMPDEST PUSH1 0x0 PUSH2 0x966 DUP5 DUP3 DUP6 ADD PUSH2 0x8D1 JUMP JUMPDEST SWAP2 POP POP SWAP3 SWAP2 POP POP JUMP JUMPDEST PUSH1 0x0 DUP1 PUSH1 0x40 DUP4 DUP6 SUB SLT ISZERO PUSH2 0x986 JUMPI PUSH2 0x985 PUSH2 0xD26 JUMP JUMPDEST JUMPDEST PUSH1 0x0 PUSH2 0x994 DUP6 DUP3 DUP7 ADD PUSH2 0x8D1 JUMP JUMPDEST SWAP3 POP POP PUSH1 0x20 PUSH2 0x9A5 DUP6 DUP3 DUP7 ADD PUSH2 0x8D1 JUMP JUMPDEST SWAP2 POP POP SWAP3 POP SWAP3 SWAP1 POP JUMP JUMPDEST PUSH2 0x9B8 DUP2 PUSH2 0xB60 JUMP JUMPDEST DUP3 MSTORE POP POP JUMP JUMPDEST PUSH2 0x9C7 DUP2 PUSH2 0xB4E JUMP JUMPDEST DUP3 MSTORE POP POP JUMP JUMPDEST PUSH1 0x0 PUSH2 0x9D8 DUP3 PUSH2 0xB32 JUMP JUMPDEST PUSH2 0x9E2 DUP2 DUP6 PUSH2 0xB3D JUMP JUMPDEST SWAP4 POP PUSH2 0x9F2 DUP2 DUP6 PUSH1 0x20 DUP7 ADD PUSH2 0xBAB JUMP JUMPDEST PUSH2 0x9FB DUP2 PUSH2 0xD2B JUMP JUMPDEST DUP5 ADD SWAP2 POP POP SWAP3 SWAP2 POP POP JUMP JUMPDEST PUSH2 0xA0F DUP2 PUSH2 0xB92 JUMP JUMPDEST DUP3 MSTORE POP POP JUMP JUMPDEST PUSH1 0x0 PUSH1 0x20 DUP3 ADD SWAP1 POP PUSH2 0xA2A PUSH1 0x0 DUP4 ADD DUP5 PUSH2 0x9BE JUMP JUMPDEST SWAP3 SWAP2 POP POP JUMP JUMPDEST PUSH1 0x0 PUSH1 0x20 DUP3 ADD SWAP1 POP PUSH2 0xA45 PUSH1 0x0 DUP4 ADD DUP5 PUSH2 0x9AF JUMP JUMPDEST SWAP3 SWAP2 POP POP JUMP JUMPDEST PUSH1 0x0 PUSH1 0xA0 DUP3 ADD SWAP1 POP PUSH2 0xA60 PUSH1 0x0 DUP4 ADD DUP9 PUSH2 0x9BE JUMP JUMPDEST DUP2 DUP2 SUB PUSH1 0x20 DUP4 ADD MSTORE PUSH2 0xA72 DUP2 DUP8 PUSH2 0x9CD JUMP JUMPDEST SWAP1 POP PUSH2 0xA81 PUSH1 0x40 DUP4 ADD DUP7 PUSH2 0xA06 JUMP JUMPDEST PUSH2 0xA8E PUSH1 0x60 DUP4 ADD DUP6 PUSH2 0xA06 JUMP JUMPDEST PUSH2 0xA9B PUSH1 0x80 DUP4 ADD DUP5 PUSH2 0xA06 JUMP JUMPDEST SWAP7 SWAP6 POP POP POP POP POP POP JUMP JUMPDEST PUSH1 0x0 PUSH1 0x60 DUP3 ADD SWAP1 POP PUSH2 0xABA PUSH1 0x0 DUP4 ADD DUP7 PUSH2 0x9BE JUMP JUMPDEST PUSH2 0xAC7 PUSH1 0x20 DUP4 ADD DUP6 PUSH2 0xA06 JUMP JUMPDEST PUSH2 0xAD4 PUSH1 0x40 DUP4 ADD DUP5 PUSH2 0xA06 JUMP JUMPDEST SWAP5 SWAP4 POP POP POP POP JUMP JUMPDEST PUSH1 0x0 PUSH2 0xAE6 PUSH2 0xAF7 JUMP JUMPDEST SWAP1 POP PUSH2 0xAF2 DUP3 DUP3 PUSH2 0xC10 JUMP JUMPDEST SWAP2 SWAP1 POP JUMP JUMPDEST PUSH1 0x0 PUSH1 0x40 MLOAD SWAP1 POP SWAP1 JUMP JUMPDEST PUSH1 0x0 PUSH8 0xFFFFFFFFFFFFFFFF DUP3 GT ISZERO PUSH2 0xB1C JUMPI PUSH2 0xB1B PUSH2 0xCE8 JUMP JUMPDEST JUMPDEST PUSH2 0xB25 DUP3 PUSH2 0xD2B JUMP JUMPDEST SWAP1 POP PUSH1 0x20 DUP2 ADD SWAP1 POP SWAP2 SWAP1 POP JUMP JUMPDEST PUSH1 0x0 DUP2 MLOAD SWAP1 POP SWAP2 SWAP1 POP JUMP JUMPDEST PUSH1 0x0 DUP3 DUP3 MSTORE PUSH1 0x20 DUP3 ADD SWAP1 POP SWAP3 SWAP2 POP POP JUMP JUMPDEST PUSH1 0x0 PUSH2 0xB59 DUP3 PUSH2 0xB72 JUMP JUMPDEST SWAP1 POP SWAP2 SWAP1 POP JUMP JUMPDEST PUSH1 0x0 PUSH2 0xB6B DUP3 PUSH2 0xB72 JUMP JUMPDEST SWAP1 POP SWAP2 SWAP1 POP JUMP JUMPDEST PUSH1 0x0 PUSH20 0xFFFFFFFFFFFFFFFFFFFFFFFFFFFFFFFFFFFFFFFF DUP3 AND SWAP1 POP SWAP2 SWAP1 POP JUMP JUMPDEST PUSH1 0x0 DUP2 SWAP1 POP SWAP2 SWAP1 POP JUMP JUMPDEST DUP3 DUP2 DUP4 CALLDATACOPY PUSH1 0x0 DUP4 DUP4 ADD MSTORE POP POP POP JUMP JUMPDEST PUSH1 0x0 JUMPDEST DUP4 DUP2 LT ISZERO PUSH2 0xBC9 JUMPI DUP1 DUP3 ADD MLOAD DUP2 DUP5 ADD MSTORE PUSH1 0x20 DUP2 ADD SWAP1 POP PUSH2 0xBAE JUMP JUMPDEST DUP4 DUP2 GT ISZERO PUSH2 0xBD8 JUMPI PUSH1 0x0 DUP5 DUP5 ADD MSTORE JUMPDEST POP POP POP POP JUMP JUMPDEST PUSH1 0x0 PUSH1 0x2 DUP3 DIV SWAP1 POP PUSH1 0x1 DUP3 AND DUP1 PUSH2 0xBF6 JUMPI PUSH1 0x7F DUP3 AND SWAP2 POP JUMPDEST PUSH1 0x20 DUP3 LT DUP2 EQ ISZERO PUSH2 0xC0A JUMPI PUSH2 0xC09 PUSH2 0xCB9 JUMP JUMPDEST JUMPDEST POP SWAP2 SWAP1 POP JUMP JUMPDEST PUSH2 0xC19 DUP3 PUSH2 0xD2B JUMP JUMPDEST DUP2 ADD DUP2 DUP2 LT PUSH8 0xFFFFFFFFFFFFFFFF DUP3 GT OR ISZERO PUSH2 0xC38 JUMPI PUSH2 0xC37 PUSH2 0xCE8 JUMP JUMPDEST JUMPDEST DUP1 PUSH1 0x40 MSTORE POP POP POP JUMP JUMPDEST PUSH1 0x0 PUSH2 0xC4C DUP3 PUSH2 0xB92 JUMP JUMPDEST SWAP2 POP PUSH32 0xFFFFFFFFFFFFFFFFFFFFFFFFFFFFFFFFFFFFFFFFFFFFFFFFFFFFFFFFFFFFFFFF DUP3 EQ ISZERO PUSH2 0xC7F JUMPI PUSH2 0xC7E PUSH2 0xC8A JUMP JUMPDEST JUMPDEST PUSH1 0x1 DUP3 ADD SWAP1 POP SWAP2 SWAP1 POP JUMP JUMPDEST PUSH32 0x4E487B7100000000000000000000000000000000000000000000000000000000 PUSH1 0x0 MSTORE PUSH1 0x11 PUSH1 0x4 MSTORE PUSH1 0x24 PUSH1 0x0 REVERT JUMPDEST PUSH32 0x4E487B7100000000000000000000000000000000000000000000000000000000 PUSH1 0x0 MSTORE PUSH1 0x22 PUSH1 0x4 MSTORE PUSH1 0x24 PUSH1 0x0 REVERT JUMPDEST PUSH32 0x4E487B7100000000000000000000000000000000000000000000000000000000 PUSH1 0x0 MSTORE PUSH1 0x41 PUSH1 0x4 MSTORE PUSH1 0x24 PUSH1 0x0 REVERT JUMPDEST PUSH1 0x0 DUP1 REVERT JUMPDEST PUSH1 0x0 DUP1 REVERT JUMPDEST PUSH1 0x0 DUP1 REVERT JUMPDEST PUSH1 0x0 DUP1 REVERT JUMPDEST PUSH1 0x0 PUSH1 0x1F NOT PUSH1 0x1F DUP4 ADD AND SWAP1 POP SWAP2 SWAP1 POP JUMP JUMPDEST PUSH2 0xD45 DUP2 PUSH2 0xB92 JUMP JUMPDEST DUP2 EQ PUSH2 0xD50 JUMPI PUSH1 0x0 DUP1 REVERT JUMPDEST POP JUMP INVALID LOG2 PUSH5 0x6970667358 0x22 SLT KECCAK256 CHAINID 0xBA SWAP9 PUSH8 0x12BCAF3D373FF58C SHR 0xB1 DUP16 EXTCODEHASH 0xE1 0xEC 0x28 SWAP9 SUB SWAP11 OR 0xD1 0x27 0xCC JUMP BALANCE 0xE5 MUL PUSH29 0x3464736F6C634300080700330000000000000000000000000000000000 "
				},
				"gasEstimates": {
					"creation": {
						"codeDepositCost": "693000",
						"executionCost": "infinite",
						"totalCost": "infinite"
					},
					"external": {
						"checkOrder(uint256)": "infinite",
						"customerAddress()": "2559",
						"getInvoice(uint256)": "infinite",
						"ownerAddress()": "2533",
						"sendInvoice(uint256,uint256)": "infinite",
						"sendOrder(string,uint256)": "infinite",
						"sendPrice(uint256,uint256)": "infinite",
						"sendSafePayment(uint256)": "26986"
					}
				},
				"methodIdentifiers": {
					"checkOrder(uint256)": "48efc672",
					"customerAddress()": "61c3fe66",
					"getInvoice(uint256)": "3a23cc0a",
					"ownerAddress()": "8f84aa09",
					"sendInvoice(uint256,uint256)": "6e0fa7be",
					"sendOrder(string,uint256)": "9670d699",
					"sendPrice(uint256,uint256)": "cea9e360",
					"sendSafePayment(uint256)": "8f5feb98"
				}
			},
			"storageLayout": {
				"storage": [
					{
						"astId": 3,
						"contract": "contracts/burger.sol:JordanSneakerOrder",
						"label": "ownerAddress",
						"offset": 0,
						"slot": "0",
						"type": "t_address_payable"
					},
					{
						"astId": 5,
						"contract": "contracts/burger.sol:JordanSneakerOrder",
						"label": "customerAddress",
						"offset": 0,
						"slot": "1",
						"type": "t_address"
					},
					{
						"astId": 34,
						"contract": "contracts/burger.sol:JordanSneakerOrder",
						"label": "orders",
						"offset": 0,
						"slot": "2",
						"type": "t_mapping(t_uint256,t_struct(Order)29_storage)"
					},
					{
						"astId": 39,
						"contract": "contracts/burger.sol:JordanSneakerOrder",
						"label": "invoices",
						"offset": 0,
						"slot": "3",
						"type": "t_mapping(t_uint256,t_struct(Invoice)12_storage)"
					},
					{
						"astId": 41,
						"contract": "contracts/burger.sol:JordanSneakerOrder",
						"label": "orderseq",
						"offset": 0,
						"slot": "4",
						"type": "t_uint256"
					},
					{
						"astId": 43,
						"contract": "contracts/burger.sol:JordanSneakerOrder",
						"label": "invoiceseq",
						"offset": 0,
						"slot": "5",
						"type": "t_uint256"
					}
				],
				"types": {
					"t_address": {
						"encoding": "inplace",
						"label": "address",
						"numberOfBytes": "20"
					},
					"t_address_payable": {
						"encoding": "inplace",
						"label": "address payable",
						"numberOfBytes": "20"
					},
					"t_bool": {
						"encoding": "inplace",
						"label": "bool",
						"numberOfBytes": "1"
					},
					"t_mapping(t_uint256,t_struct(Invoice)12_storage)": {
						"encoding": "mapping",
						"key": "t_uint256",
						"label": "mapping(uint256 => struct JordanSneakerOrder.Invoice)",
						"numberOfBytes": "32",
						"value": "t_struct(Invoice)12_storage"
					},
					"t_mapping(t_uint256,t_struct(Order)29_storage)": {
						"encoding": "mapping",
						"key": "t_uint256",
						"label": "mapping(uint256 => struct JordanSneakerOrder.Order)",
						"numberOfBytes": "32",
						"value": "t_struct(Order)29_storage"
					},
					"t_string_storage": {
						"encoding": "bytes",
						"label": "string",
						"numberOfBytes": "32"
					},
					"t_struct(Invoice)12_storage": {
						"encoding": "inplace",
						"label": "struct JordanSneakerOrder.Invoice",
						"members": [
							{
								"astId": 7,
								"contract": "contracts/burger.sol:JordanSneakerOrder",
								"label": "ID",
								"offset": 0,
								"slot": "0",
								"type": "t_uint256"
							},
							{
								"astId": 9,
								"contract": "contracts/burger.sol:JordanSneakerOrder",
								"label": "orderNo",
								"offset": 0,
								"slot": "1",
								"type": "t_uint256"
							},
							{
								"astId": 11,
								"contract": "contracts/burger.sol:JordanSneakerOrder",
								"label": "created",
								"offset": 0,
								"slot": "2",
								"type": "t_bool"
							}
						],
						"numberOfBytes": "96"
					},
					"t_struct(Order)29_storage": {
						"encoding": "inplace",
						"label": "struct JordanSneakerOrder.Order",
						"members": [
							{
								"astId": 14,
								"contract": "contracts/burger.sol:JordanSneakerOrder",
								"label": "ID",
								"offset": 0,
								"slot": "0",
								"type": "t_uint256"
							},
							{
								"astId": 16,
								"contract": "contracts/burger.sol:JordanSneakerOrder",
								"label": "JordanSneaker",
								"offset": 0,
								"slot": "1",
								"type": "t_string_storage"
							},
							{
								"astId": 18,
								"contract": "contracts/burger.sol:JordanSneakerOrder",
								"label": "quantity",
								"offset": 0,
								"slot": "2",
								"type": "t_uint256"
							},
							{
								"astId": 20,
								"contract": "contracts/burger.sol:JordanSneakerOrder",
								"label": "price",
								"offset": 0,
								"slot": "3",
								"type": "t_uint256"
							},
							{
								"astId": 22,
								"contract": "contracts/burger.sol:JordanSneakerOrder",
								"label": "safePayment",
								"offset": 0,
								"slot": "4",
								"type": "t_uint256"
							},
							{
								"astId": 24,
								"contract": "contracts/burger.sol:JordanSneakerOrder",
								"label": "dateOfOrder",
								"offset": 0,
								"slot": "5",
								"type": "t_uint256"
							},
							{
								"astId": 26,
								"contract": "contracts/burger.sol:JordanSneakerOrder",
								"label": "dateOfDelivery",
								"offset": 0,
								"slot": "6",
								"type": "t_uint256"
							},
							{
								"astId": 28,
								"contract": "contracts/burger.sol:JordanSneakerOrder",
								"label": "created",
								"offset": 0,
								"slot": "7",
								"type": "t_bool"
							}
						],
						"numberOfBytes": "256"
					},
					"t_uint256": {
						"encoding": "inplace",
						"label": "uint256",
						"numberOfBytes": "32"
					}
				}
			},
			"userdoc": {
				"kind": "user",
				"methods": {},
				"version": 1
			}
		}
	}
}